:020000040800F2
:1000000000500020494B00080D460008114600082A
:1000100015460008194600081D46000800000000AB
:100020000000000000000000000000002146000861
:100030002546000800000000294600082D4600085B
:10004000914B0008914B0008914B0008914B000820
:10005000914B0008914B0008914B0008914B000810
:10006000914B0008914B0008914B0008914B000800
:10007000914B0008914B0008914B0008914B0008F0
:10008000914B0008914B0008914B0008914B0008E0
:100090003D460008914B0008914B0008914B000829
:1000A000914B0008914B0008914B0008914B0008C0
:1000B000914B000849460008914B00081D47000875
:1000C00029470008914B0008914B0008914B00080C
:1000D000914B0008914B0008914B0008914B000890
:1000E000914B0008914B0008914B00080000000064
:1000F0000000000000000000000000000000000000
:0C01000000000000000000005FF808F1A3
:10010C0010B5054C237833B9044B13B10448AFF345
:10011C0000800123237010BD70010020000000003E
:10012C00DC4B000808B5034B1BB103490348AFF384
:10013C00008008BD0000000074010020DC4B0008AA
:10014C00034613F8012B002AFBD1181A013870470B
:10015C0038B54FF47A730D490D4A09781268B3FB20
:10016C00F1F30546B2FBF3F000F0A0F808B90F2D3F
:10017C0001D9012038BD0446024629464FF0FF3014
:10018C0000F052F8034B20461D6038BD00000020E3
:10019C002801002004000020074A08B5136803203A
:1001AC0043F01003136000F02DF80020FFF7D0FF90
:1001BC0004F072F9002008BD00200240034A044BF1
:1001CC0011681B780B441360704700BFB00300200C
:1001DC0000000020014B1868704700BFB0030020DE
:1001EC0038B50446FFF7F6FF631C054602D0044BF6
:1001FC001B781C44FFF7EEFF401B8442FAD838BD35
:10020C00000000204FF6FF01064A0002D36800F4FC
:10021C00E0600B4043F0BF6343F400330343D3600F
:10022C00704700BF00ED00E0184B70B4DC68C4F3FD
:10023C000224C4F10706042E04F1040328BF04268B
:10024C00062B17D90125033CA540013D2A4001236B
:10025C00B340013B1940A140002841EA02010CDBEC
:10026C00090100F16040C9B200F5614080F800134B
:10027C0070BC704700221446E9E7054B00F00F00F4
:10028C000901C9B20344197670BC704700ED00E057
:10029C00FCEC00E0012300F01F01034A40098B40F5
:1002AC0042F82030704700BF00E100E00138B0F1A7
:1002BC00807F0DD230B4F02500220721054B064C6F
:1002CC00586084F82350104630BC9A60196070470F
:1002DC000120704710E000E000ED00E0044A042823
:1002EC0013680CBF43F0040323F00403136070473E
:1002FC0010E000E0704700BF08B5FFF7FBFF08BD3A
:10030C0038B590F82130022B04D0042201248263EA
:10031C00204638BD03681D491A688B4222F00E0234
:10032C001A601A6822F001021A6021D0184A93420E
:10033C001CD0143293421FD0143293421FD014326B
:10034C0093421FD0143293420CBF4FF480134FF0E2
:10035C008073012100240F4D426B6B6080F82110DB
:10036C0080F8204032B19047204638BD1023F0E78A
:10037C000123EEE71446CBE74FF48073E9E74FF423
:10038C008053E6E74FF48033E3E700BF08000240F8
:10039C001C000240000002402DE9F04F4FF0000815
:1003AC0085B043466FF01F06DFF8E0E1DFF8E0C1EF
:1003BC00704F009005E00133102B06F1040600F09D
:1003CC008B8001220C689A401440A242F3D14D68F4
:1003DC00122D00F0A58000F28E80022D00F0A78077
:1003EC0040F28380032D00F09F80112D02D1CA684A
:1003FC0002F10408FF2C72D8009A4FEA830A914646
:10040C0012680F2505FA0AFB22EA0B0208FA0AFA0F
:10041C0042EA0A02C9F80020D1F804A01AF0805F61
:10042C00C9D0DEF8189023F0030249F00109CEF888
:10043C001890DEF8189002F1804209F00109CDF80D
:10044C000C9002F5803203F00309DDF80CB04FEA92
:10045C008909D2F808B005FA09F52BEA05000190D4
:10046C000098604579D0444DA84279D0434D00980E
:10047C00A8427AD0424D0098A8420CBF4FF0030B13
:10048C004FF0040B0BFA09F901981AF4803F40EA7B
:10049C00090595603A6803F1010314BF2243A24396
:1004AC003A607A681AF4003F14BF2243A2437A6080
:1004BC00BA681AF4801F14BF2243A243BA60FA68C8
:1004CC001AF4001F14BF144322EA0404102BFC601E
:1004DC0006F104067FF475AF05B0BDE8F08F009807
:1004EC00B246426800F104098BE7A5B1012D81D118
:1004FC00D1F80C807EE7234885420CD01BD92248CA
:10050C00854208D000F58030854204D0DFF8849015
:10051C004D457FF46FAF8D68BDB94FF0040869E7A6
:10052C00CA6802F10C0865E74FF0000862E7CA6878
:10053C0002F108085EE7DFF860904D45EBD009F555
:10054C0080394D457FF456AFE5E70098012D0CBF7F
:10055C00026142614FF008084CE74FF0000993E745
:10056C004FF0010B0BFA09F98EE74FF0020B0BFA67
:10057C0009F989E700040140000C0140001001401A
:10058C000014014000002110000031100010024046
:10059C00000801400000221000001110836819426D
:1005AC0014BF01200020704702B909040161704793
:1005BC00C3685940C16070472DE9F843074690461F
:1005CC009946C1F307468DB23C68012E1FD0A06935
:1005DC0035EA000314BF0120002000B36069430515
:1005EC001FD4B8F1FF3FF0D0B8F1000F05D0FFF7E2
:1005FC00F1FDA0EB09008045E6D2002320223B63ED
:10060C0087F83C3087F83D200320BDE8F883626909
:10061C0035EA020314BF012000200028DED1BDE81A
:10062C00F88300226FF480660425202123680120C2
:10063C0043F40073236066613D6487F83C203A63A1
:10064C0087F83D10BDE8F8832DE9F0418046174648
:10065C001D46C1F307468CB2D8F8001009E0886932
:10066C0034EA00030CBF01200020B8420BD16B1CF4
:10067C000CD1012EF3D14B6934EA03030CBF0120DA
:10068C000020B842F3D00020BDE8F0812DB1FFF777
:10069C00A1FD069BC01A8542DED200232022C8F899
:1006AC00303088F83C3088F83D20032088F83E3004
:1006BC00BDE8F08170B505460C46164608E0516958
:1006CC00C90617D45CB1FFF785FD801B844206D3A5
:1006DC002A68536913F04003F1D0002070BD20222A
:1006EC0000212B6C85F83C1013432B64032085F8F8
:1006FC003D2070BD6FF01000202150612B64012053
:10070C002B6385F83C3085F83D1070BDF8B5044678
:10071C000E4617462068436913F0800323D14569C0
:10072C006A050CD56FF48065042120224561216493
:10073C000120236384F83C3084F83D20F8BD731C01
:10074C00E9D026B1FFF746FDC01B8642E2D220213C
:10075C000022236C84F83C200B4323640320226387
:10076C0084F83D10F8BD0020F8BD00BF2DE9F0471E
:10077C00046884B025680D9E45F480652560256865
:10078C00884645F4807591469A4625600C9B0096E8
:10079C0000224FF001110746FFF756FF18B1032056
:1007AC0004B0BDE8F0873B685FFA88F808F0FE02F9
:1007BC001A612E4933460C9A3846FFF7FDFE20B1DC
:1007CC003B6C042BEBD10120EAE73B6803905969A1
:1007DC00324603919B690C9903933846039BFFF7B0
:1007EC0095FF60B9BAF1010F3B6812D15FFA89F23B
:1007FC001A6132460C993846FFF788FFC0B13B6C42
:10080C00042BCCD13A680120136843F400731360B5
:10081C00C6E74FEA19221A610C9932463846FFF79F
:10082C0075FF0028EBD13A685FFA89F31361E0E7B2
:10083C003C68024621680C9B41F48071216038466B
:10084C004FF001110096FFF7FFFE0028A7D13A6880
:10085C0048F00108C2F8108033460C9A0349384618
:10086C00FFF7AAFE0028ABD19AE700BF02000100F7
:10087C0000287ED0F8B590F83D30044603F0FF0216
:10088C00002B61D02423226884F83D30136823F0B8
:10089C000103136001F02CFE6368374A934230D891
:1008AC00364A90424ED95A00431EB3FBF2F3013341
:1008BC00C3F30B03042B38BF0423314AA2FB0020E3
:1008CC002268800C411C5060116200214FF0200EF8
:1008DC00E069E768266A256906433D436069A769B4
:1008EC00D361384316609560D0601368084643F0B6
:1008FC0001031360216484F83DE0216384F83E1009
:10090C00F8BD204A90421DD94FF496711C4D1E4AD9
:10091C00A5FB0065AD0C01FB05F1A2FB0121A6684E
:10092C002268890901315560116296B9013803EBCF
:10093C004303B0FBF3F30133C3F30B03BBB143F439
:10094C000043C2E70120F8BD80F83C2003F0F4FD21
:10095C0098E703EB830303EB83030138B0FBF3F35A
:10096C000133C3F30B0313B143F44043ADE701234D
:10097C00ABE70120704700BFA08601007F841E00FA
:10098C0083DE1B43FF083D00D34D62102DE9F04779
:10099C00044686B099460D461746BDF83C80FFF7D5
:1009AC0019FC94F83D30202B04D00225284606B0C3
:1009BC00BDE8F08706460090192301229549204690
:1009CC00FFF742FE0028F0D194F83C30012BECD01C
:1009DC000123216884F83C300B68D80703D40B68DA
:1009EC0043F001030B604FF0220E40204FF0000A41
:1009FC000A684B4622F400620A60874A29460E9D1B
:100A0C0084F83DE084F83E00C4F840A0A4F82A80A5
:100A1C00E262608D6562109D019600953A462085D4
:100A2C002046FFF7A3FE054638B1236C84F83CA0A2
:100A3C00042B00F0C7800325B8E7238D9BB92368EE
:100A4C0002905A6902929A690292029A1A6842F4C6
:100A5C0000721A600023202284F83C3084F83D2078
:100A6C0084F83E30A2E7012B226800F0AD80022B07
:100A7C0000F0BD80116841F48061116005905169EE
:100A8C00059192690592059A644F002BE2D0032BD5
:100A9C004BD8012B00F08880022B0096109B4FF056
:100AAC0000023946204667D0FFF7CEFD0028C2D1A0
:100ABC0021680B6823F480630B6072B62268636A4A
:100ACC001269591C61621A70638D218D013B0139C9
:100ADC009BB200960246218563853946109B2046C1
:100AEC00FFF7B2FD0028A6D12368616A1A68481C7A
:100AFC0042F400721A601B6960620B70638D228D68
:100B0C00013B9BB2013A6385228562B62268636A17
:100B1C001269591C61621A70628D238D013A013B76
:100B2C0092B29BB262852385AFE73246109920467C
:100B3C00FFF7C0FD002841D12268636A1269591C75
:100B4C0061621A70628D2168013A92B2238D6285BE
:100B5C004A69013B9BB25207238596D5636A0A69A1
:100B6C00591C61621A70238D628D013B013A9BB254
:100B7C0092B22385628588E7FFF766FD00287FF433
:100B8C005AAF72B62368616A1A68481C42F4007244
:100B9C001A601B6960620B70638D228D013B013AF8
:100BAC009BB222856385B0E7324610992046FFF749
:100BBC0081FD18B92268636A1269D1E7236C202B76
:100BCC003FF439AF0125F1E6136823F48063136019
:100BDC0072B6236803905A6903929A690392039A36
:100BEC001A6842F400721A6062B6238D4CE71368DF
:100BFC0043F40063136072B6236804905A6904923C
:100C0C009A690492049A1A6822F480621A6062B695
:100C1C00238D39E7020010000000FFFF04000100E3
:100C2C00704700BF704700BF704700BF704700BFE0
:100C3C00704700BF704700BF704700BF704700BFD0
:100C4C00704700BF704700BF38B590F83D30044680
:100C5C00293B012B4ED990F83D30602B036805D011
:100C6C005A6815055CBF202280F83D2000222263C3
:100C7C0084F83E201A6822F400621A605A6812F452
:100C8C00006214D0616B5A6891F8210022F4006262
:100C9C0001285A6035D03A4B08464B63FFF730FBBE
:100CAC00002860D194F83D30282B13D038BD94F82F
:100CBC003D10602942D05A69520604D5626A1B69FC
:100CCC00511C616213702046FFF7BAFF94F83D3057
:100CDC00282BEBD1236C5B07E8D500232022294974
:100CEC002046E162236384F83D2084F83E30FFF710
:100CFC00A1FF38BD002328220363036880F83D2040
:100D0C00B8E7A36B1E4A18465A63FFF7F9FA002896
:100D1C00C8D023685A69500605D5626A1B69511CF4
:100D2C0061621370236820211A68A06B22F0010203
:100D3C001A60436B84F83D109847B3E7202184F880
:100D4C003D1022645A69510605D5626A1B69511C13
:100D5C006162137023681A68204622F001021A603F
:100D6C00FFF770FF9EE720252268606B1368416BCC
:100D7C0023F00103136084F83D50884792E700BFCD
:100D8C00C91600080000FFFFF0B5044603688DB0DB
:100D9C009D695969586894F83E20D2B2102A00F027
:100DAC008F80402A00F08C808E4A0A401AB382054C
:100DBC0000F102828C4A2A40002A00F0F9808B4A0A
:100DCC000A40002A40F0B381894A0A40002A00F008
:100DDC00D480860540F1D180628D92B2002A00F059
:100DEC00CC80626A511C616212781A61638D013B7E
:100DFC009BB26385C1E07F4F0F40002FDAD0860590
:100E0C00D8D594F83D1058681E4620F4E060586020
:100E1C000B925A69C9B20B921A6842F001021A601D
:100E2C000B9A1A6822F480621A605A6810050ED563
:100E3C0094F83D20222A00F04E8294F83D202A2A74
:100E4C0000F04982626B1268526892B26285628DC0
:100E5C0092B2E2B15A69520709D5626A1B69501CF9
:100E6C0060621370638D2668013B9BB26385736966
:100E7C005B0608D5636A3269581C60621A70638D10
:100E8C00013B9BB26385236C43F004032364236C06
:100E9C00002B40F03382A1F12802022A40F2E681B5
:100EAC00236B222B01D0222967D10023202223631C
:100EBC00204684F83D2084F83E30FFF7B7FE5CE016
:100ECC0011F0011F43D0860500F15F814A4A0A40A8
:100EDC00002A54D0444A2A40002A44D0434A0A40AB
:100EEC00002A00F08D80470540F18A80404A0A4074
:100EFC00002A40F0898094F83D20258D94F83E100E
:100F0C00D2B2C9B2E06A002D40F00282212A00F070
:100F1C004882402931D1222A2FD1628D92B2002AE7
:100F2C0000F02D8294F83E20402A7FF45AAF226DB7
:100F3C00002A40F0B182E26C012AA26C00F0F98226
:100F4C00C2F307221A61236D0133236515E02A4A87
:100F5C000A40A2B18205BDD5626CD2B21A61224A96
:100F6C002A40002ABAD1254A0A40002A78D1204AC0
:100F7C000A4012B1810500F139810DB0F0BD194A5A
:100F8C000A40002AA6D08705A4D594F83E20E76A2B
:100F9C00D4F830E094F83D60D2B2222E00F07E817D
:100FAC0000220A925A690A929A690A920A9A91E75D
:100FBC00124A0A40002A40F08B800D4A0A40002A4F
:100FCC00DBD08205D9D5628D92B2002AD5D0626A67
:100FDC001B69511C61621370638D013B9BB263856D
:100FEC00CBE700BF020001000400100080000100EC
:100FFC000400010010000100080001004000010085
:10100C00A44A0A40002AB8D08605B6D5E16A94F8FD
:10101C003D20212AB1D1628D92B2002A7FF4E1AE3B
:10102C00042905D0082903D011F5803F40F0AC818C
:10103C00002120205A6822F4E0625A601A6842F4B7
:10104C0000721A60216384F83D0094F83E3020460B
:10105C00402B84F83E1000F0C181FFF7E1FD8CE7D6
:10106C00450584D58B4A0A40002A83D194F83D204B
:10107C00222A82D1628D92B2032AA8D8023A012A7E
:10108C00E26A40F2718120250021022A1A68606A06
:10109C0014BF22F4806242F480621A605A6822F40F
:1010AC00E0625A601B69421C62620370638D013BF3
:1010BC009BB2638584F83D50216394F83E30204602
:1010CC00402B84F83E1000F04C81FFF7ABFD54E749
:1010DC0045057FF572AF6F4A0A40002A7FF471AF65
:1010EC0094F83D10628DC9B292B2002A3FF445AF1C
:1010FC00626A1B69501C60621370638D013B9BB26A
:10110C006385638D9BB2002B7FF437AF2A297FF464
:10111C0034AF2225282122682046536823F48063AB
:10112C005360256384F83D10FFF780FD25E74705E4
:10113C007FF54AAE574A0A40002A7FF44AAE94F82B
:10114C003D10628DC9B292B2002A3FF416AF626AAA
:10115C00501C606212781A61628D013A92B26285FB
:10116C00628D92B2002A7FF408AF29297FF405AF73
:10117C00212528215A68204622F480625A60256372
:10118C0084F83D10FFF750FDF7E694F83E20402A16
:10119C0064D02269B2F5804F1CD0226D002A71D028
:1011AC00226D012A7FF496AE626CD21102F0060217
:1011BC0042F0F1021A618DE699699B6981F0040194
:1011CC001F06C1F3800154BFA289228B2046FFF772
:1011DC002FFDD2E694F83D20212A626C16BF42F016
:1011EC00010202F0FE02D2B21A6173E6E16A628D6C
:1011FC0092B2032A75D0628D92B2022A7FF4E7AEC6
:10120C00042900F08980082900F0868011F5803FC0
:10121C0000F082801A68022914BF22F4806242F422
:10122C0080621A605A6822F440725A602020626A06
:10123C001B69551C65621370638D2268013B9BB260
:10124C006385636A12695D1C65621A70638D002187
:10125C00013B9BB2638584F83D002DE7226D002A8B
:10126C0050D1626C02F0FE021A6133E620220A4968
:10127C002046E162236384F83D2084F83E30FFF77A
:10128C00D9FC7AE6626CD21102F0060242F0F0024E
:10129C001A611FE6040001000000FFFF266D16B95D
:1012AC00402A00F0B980266D26B92269B2F5404F6C
:1012BC0000F0B980628D92B2002A36D102925A693E
:1012CC0002929A690292029A1A6842F400721A60A7
:1012DC0000222265FEE5A26B1268526892B262850A
:1012EC00B5E5042905D0082903D011F5803F7FF41A
:1012FC006EAE1A6822F480621A6068E62046FFF728
:10130C00A3FC3AE6626C42F00102D2B21A61E1E54A
:10131C00212A7FF4FEAD00E65A6822F440725A602E
:10132C001A6842F400721A6080E7628D92B2012A48
:10133C0057D0628D92B2022A00F083801A6842F470
:10134C0080621A605A68120503D55A6842F48052BA
:10135C005A60002209925A6909929A690992099A6B
:10136C00B6E7FFF76BFC08E6022A1A6800F0D28099
:10137C0022F480621A601A6842F400621A605A6899
:10138C0022F480625A60F8E511262025596820461F
:10139C0021F4E0615960266384F83E2084F83D50C6
:1013AC005BE6042805D0082803D010F5803F40F0F8
:1013BC00848000222020596821F4E061596019686A
:1013CC0041F400711960226384F83D0094F83E30BA
:1013DC002046402B84F83E207FF43FAEFFF72CFCD8
:1013EC00CBE517F5803F77D0042F45D0082F43D09D
:1013FC00BEF1120F40D0E26A022A1A6814BF22F41E
:10140C00806242F480621A60002205925A69059249
:10141C009A690592059A5BE700965A6900929A6957
:10142C000092009A56E501965A6901929A690192C6
:10143C00019A1A6842F480721A60226D0132226598
:10144C0048E5E26A0026022A1A6859D042F4006282
:10145C001A6007965A6907929A690792079A1A684E
:10146C0022F480621A605A6816057FF531AF5A680B
:10147C0042F480525A602BE700261A6822F48062EC
:10148C001A6006965A6906929A690692069A1A6822
:10149C0042F400721A601BE7226D012A4FD0226DB4
:1014AC00022A7FF46AAD94F83D20222A4ED094F89B
:1014BC003D20212A7FF461AD93E4112620215A6846
:1014CC00204622F4E0625A60266384F83E5084F889
:1014DC003D10FFF7A5FB50E51A6822F480621A60F4
:1014EC005A6812F4006219D000261A6822F480623D
:1014FC001A6003965A6903929A690392039AE7E673
:10150C0042F480621A6008965A6908929A690892A5
:10151C00089AA8E742F480621A6030E704925A698C
:10152C0004929A690492049A1A6842F400721A603E
:10153C00CEE6D2B21A61236D023323651DE5A26C8F
:10154C00D2B21A61236D0133236516E51A6842F491
:10155C0080721A6011E500BFF8B5036855495D69E2
:10156C0004460D425A6828D0D60526D56FF48070F3
:10157C00216C15F4813F41F0010121645861196817
:10158C0041F40041196047D06FF40070216C15F4E0
:10159C00823F41F002012164586123D115F4843F4C
:1015AC0008D0D20506D56FF40061226C42F0080217
:1015BC0022645961236C5BB9F8BD15F4813F0CD0E2
:1015CC00D005E1D415F4823FE8D0236C002BF3D086
:1015DC002046BDE8F840FFF737BB15F4823FDDD05D
:1015EC00D105E7D594F83E00628D94F83D10202883
:1015FC0092B2C9B2266B13D0226C42F00402226460
:10160C0094F83E20102A36D06FF480625A6115F49B
:10161C00843FCFD02368C6E715F4823FE2D1BDE703
:10162C00002AE9D101F0F702212A03D02829E3D1BD
:10163C00212EE1D194F83D20E16AD2B204291FD0C9
:10164C0008291DD0212ADFD1202600206FF48061CB
:10165C00194FE762226384F83D6084F83E005A68B3
:10166C00204622F4E0625A6059611A680A401A60F6
:10167C00FFF7DAFACBE71A6842F400721A60C3E794
:10168C00282ADFD16FF48067002120260A4A2046E1
:10169C00E2625A6822F4E0625A605F611A683A406A
:1016AC001A60216384F83D6084F83E10FFF7C2FA9B
:1016BC00ADE700BF000101000000FFFF38B50023BB
:1016CC00406A0268456B1168846B21F4806111607B
:1016DC00438590F83D106B6360294FF020016363E4
:1016EC0080F83D1080F83E3006D0136823F00103DB
:1016FC001360FFF7A5FA38BD0364136823F00103E8
:10170C001360FFF79FFA38BD002867D0F0B590F84A
:10171C00293487B0054603F0FF02002B59D0032370
:10172C002E4685F82934286801F08CF956F810EB10
:10173C006C4637460FCF0FC43B682F1D236097E8CC
:10174C000E00704601F06CF90021286801F084F954
:10175C0000212B4608462A46012482F8281091863F
:10176C0001310F2982F8294082F82B009063D06355
:10177C00106402F12002F0D10022144683F82822D2
:10178C009A8601320F2A83F8294283F82B42C3F838
:10179C003842C3F83C42C3F8404203F12003EDD178
:1017AC00EE460FCED5F800C0AEE80F0033686046A9
:1017BC00CEF8003097E80E0001F050F9012385F8BF
:1017CC002440286885F8293401F078FD002007B002
:1017DC00F0BD80F8282403F02BF8A0E70120704717
:1017EC0090F82824012A01D102207047012110B55C
:1017FC00044680F8281403F04DF9206801F05CFDD4
:10180C00206801F015F9002084F8280410BD00BFF1
:10181C0090F82824012A01D10220704710B5044603
:10182C00012284F8241080F82824006801F03EFD81
:10183C00002084F8280410BD38B54CB2002C0546A5
:10184C0019DB00EB411000F50A70E40F44700170D5
:10185C00C37095F828340261012B01D1022038BDE8
:10186C000123014685F82834286801F011F900207D
:10187C0085F8280438BD01F07F0100EB41102830B9
:10188C00E3E700BF4AB2002A10B5044617DB00EBB1
:10189C00411303F50A73D20F5A70197094F8282467
:1018AC00012A01D1022010BD0122194684F82824F6
:1018BC00206801F085FA002084F8280410BD01F09E
:1018CC007F0100EB41132833E5E700BF70B500261C
:1018DC0001F07F014D01441905F50A7584F82812B1
:1018EC00C4F83C224119C4F840320068C4F8446280
:1018FC0084F8296201F042FB304670BD01F00F0103
:10190C0000EB4111B1F84402704700BFF8B5002656
:10191C00012701F07F014D014419283584F8281066
:10192C00E26341192364006884F82970666401F04D
:10193C0025FB3046F8BD00BF2DE9F04F044683B0BF
:10194C00006801F0BDFC020444D4206801F0B8FC2E
:10195C00460500F1F481206801F0B2FC10F4804FD0
:10196C00206807D0B0F8443023F480431B041B0CD0
:10197C00A0F8443001F0A4FC10F4005F206807D0FC
:10198C00B0F8443023F400531B041B0CA0F8443073
:10199C0001F096FCC50400F1B481206801F090FCC4
:1019AC00000500F18D81206801F08AFC820500F1B0
:1019BC007A81206801F084FCC30508D52268B2F84E
:1019CC00443023F480731B041B0CA2F8443003B086
:1019DC00BDE8F08F00232068DFF89084DFF890A436
:1019EC00DFF890B4ADF80430ADF80630B0F8443000
:1019FC009BB21F04ADF80430A8D5BDF8045015F007
:101A0C000F0552D1BDF80410038811F010019BB2E0
:101A1C0000F09280ADF80630BDF806301B0500F1E1
:101A2C002281BDF806301F04E0D540F68F73028882
:101A3C0013400380B0F8503094F828229BB203EB8B
:101A4C00C20300EB4303D3F80C34C3F30903C4F80B
:101A5C004432002B40F0F0810021204602F00CFFB4
:101A6C002068D4F83812B0F850303E299BB200F5FB
:101A7C00806503F1060340F2B981C1F34F12CE0623
:101A8C0004BF02F1FF3292B24BEA822292B245F8C5
:101A9C00132003889BB203EA0A0383F4405343F4F4
:101AAC00004343F080030380A0E730F825309BB25D
:101ABC00ADF80630BDF806301A0467D4BDF8063010
:101ACC001B0693D530F825306E019BB203EA080350
:101ADC0020F82530A11991F83230002B40F0A1806C
:101AEC00B0F8503091F828209BB203EBC2030233BC
:101AFC0000F5806252F81330C3F309034B64002BDA
:101B0C0040F06C812644B0F8503096F828109BB207
:101B1C0003EBC103023352F81310F26BC1F309014A
:101B2C00336C0A447164F26396F8281020464BBB60
:101B3C0002F0AAFE206859E703EA08030380B0F814
:101B4C00503094F828209BB203EBC20300EB430007
:101B5C00D0F80434E26BC3F309031A446364E26300
:101B6C00204602F091FE94F824306BB1236C5BB9E3
:101B7C0094F82420206842F08002A0F84C2084F8CD
:101B8C00243033E7FFF7C2FE20682FE740F68F734F
:101B9C0030F825206E01134020F8253004EB06099F
:101BAC0099F83232002B00F0E88099F8283230F89E
:101BBC00231000EB830211F4804FB0F8501089B25F
:101BCC0001EBC30300EB430300F01B81D3F8047457
:101BDC00C7F30907002F40F0458140F60F731188B9
:101BEC000B4043F4004343F0C0031380A119D1F818
:101BFC004402D1F83C22D1F8403238443A44C1F87E
:101C0C004402C1F83C2223B1D1F83802874280F05B
:101C1C000C812644204696F8281202F02DFE2068EE
:101C2C004CE791F8282004EB451530F8223013F0DE
:101C3C00400FB0F850309BB203EBC20300F0B580FC
:101C4C00023300F5806252F81330C3F309036B645E
:101C5C00002B00F0B480CA8DC96B01F037FB2068F3
:101C6C0000F58062ABE0B0F8503094F828229BB2BB
:101C7C0003EBC20300EB4303D3F80C34B4F82C226F
:101C8C00C3F30903C4F8443204F22C4101F030FBD5
:101C9C0040F68F732268204611880B40138002F0A7
:101CAC00E5FD2068A2E622682046B2F8443023F411
:101CBC0000731B041B0CA2F8443002F0EDFD78E617
:101CCC002368B3F84020184692B242F00802A3F8F9
:101CDC004020B3F8442022F400621204120CA3F842
:101CEC004420B3F8402092B242F00402A3F8402002
:101CFC0001F0E6FAC1043FF556AE204602F0DEFDD7
:101D0C0051E622682046B2F8403023F004031B044D
:101D1C001B0CA2F84030B2F8403023F008031B042F
:101D2C001B0CA2F8403002F0D9FD2068B0F844300A
:101D3C0023F480531B041B0CA0F844302EE62268BD
:101D4C002046B2F8443023F480631B041B0CA2F829
:101D5C00443002F0A5FD94F82834012B3FF4FBAD80
:101D6C000025012384F8245084F82834294620685F
:101D7C0001F09CFA84F82854EDE5B0F8503099F84D
:101D8C0028229BB203EBC20300EB4303D3F80C7481
:101D9C00C7F30907002F3FF429AF3B46B9F82C22B3
:101DAC00D9F83C1201F0A4FA20E7063300F5806262
:101DBC0052F81330C3F309036B64002B4AD140F67D
:101DCC000F73A11991F8281030F821502B4043F4CF
:101DDC00404343F0800320F8213093E68A8DC96B91
:101DEC0001F074FA206800F580628BE6C1F34F02B3
:101DFC00C90744BF013292B2920292B245F8132045
:101E0C0047E6D3F80C74C7F30907002F3FF4E5AE8F
:101E1C003B46B9F83022D9F83C1201F069FA99F82E
:101E2C002832226802EB8302D7E691F8281220466A
:101E3C00FFF74CFD206841E6B4F82C22D4F83C1294
:101E4C0001F056FAD4F83C32D4F844221344C4F8C6
:101E5C003C3201E60A8EC96B01F038FA206800F5B5
:101E6C008062ACE73B46B9F82E22D4E70F8FFFFF18
:101E7C008FBFFFFF0080FFFF38B54BB2002B0C4625
:101E8C00054618DB00EB411101F50A710122DB0F4D
:101E9C004B700C708A7095F82834934201D1022053
:101EAC0038BD85F82824286801F076F94CB100205B
:101EBC0085F8280438BD01F07F0400EB441128316B
:101ECC00E4E705F22C41286801F0FEF9EFE700BFCA
:101EDC004AB2002A38B5054619DB00EB411303F56D
:101EEC000A730024D20F5A7019709C7095F828242C
:101EFC00012A01D1022038BD0122194685F8282477
:101F0C00286801F083F985F82844204638BD01F093
:101F1C007F0100EB41132833E3E700BF11F0800F82
:101F2C000CD001F07F0100EB4110283062B101228E
:101F3C00190CC380018182720020704700EB4110A4
:101F4C0000F50A70002AF2D182728380002070475B
:101F5C002DE9F041036882B0DD07044630D5AD4968
:101F6C004A6802F00C02042A00F0FA804A6802F077
:101F7C000C02082A00F0F0806368B3F5803F00F093
:101F8C007481002B00F00481B3F5A02F00F0A9811F
:101F9C00A04B1A6822F480321A601A6822F480224C
:101FAC001A60FEF717F99B4D064605E0FEF712F98D
:101FBC00801B642800F217812B689A03F6D52368DE
:101FCC009F0728D5934A516811F00C0F00F0A98097
:101FDC00516801F00C01082900F09F802369002B47
:101FEC0000F0328101228C4B8A4D1A60FEF7F2F818
:101FFC00064605E0FEF7EEF8801B022800F2F3809F
:10200C002B689807F6D52B68626923F0F80343EA2E
:10201C00C2032B6023681A075DD45D073AD57D4B4C
:10202C00DA69D00000F1A6800125DA6942F080520D
:10203C00DA61DB6903F080530093009B774B1A68DD
:10204C00D10540F1BF80E368012B00F01481002B17
:10205C0000F0CD80052B6F4B1A6A00F04F8122F0F7
:10206C0001021A621A6A22F004021A62FEF7B2F82E
:10207C00684E804641F2883706E0FEF7ABF8A0EBDD
:10208C000800B84200F2AF80336A9B07F5D5002DEB
:10209C0040F0F780E369D3B15E4D6A6802F00C0240
:1020AC00082A45D0022B4FF000025D4B00F0EF8068
:1020BC001A60FEF78FF82C46054605E0FEF78AF805
:1020CC00401B022800F28F8023689B01F6D400206D
:1020DC0002B0BDE8F081A369002B2DD00122514B39
:1020EC004C4D1A60FEF776F8064604E0FEF772F8DF
:1020FC00801B022877D86B6A9B07F7D54A4B4B4A53
:10210C001B68A2FB03235B0A019300BF019B5A1EB1
:10211C000192002BF9D123687FE75268D6033FF573
:10212C005DAF3C4A1268950726D52269012A23D057
:10213C00012002B0BDE8F0813A4A364D1360FEF73B
:10214C0049F8064604E0FEF745F8801B02284AD8F9
:10215C006B6A9F07F7D4DEE74A68D0037FF50CAFB4
:10216C002C4A126891037FF52BAF6268002A7FF42A
:10217C0027AFDDE7002561E7264960690A6822F090
:10218C00F80242EAC0020A601A077FF546AFA2E7DE
:10219C0003F1804303F504331A681D4622F48032A0
:1021AC001A601A6822F480221A60FEF713F80646A9
:1021BC0004E0FEF70FF8801B642814D82B689B03EF
:1021CC00F7D4FCE61A681E4642F480721A60FEF7D9
:1021DC0001F807463368DA053FF535AFFDF7FAFF2E
:1021EC00C01B6428F6D9032002B0BDE8F08103F1CE
:1021FC00804303F504331A6A1E4622F001021A6268
:10220C001A6A41F2883822F004021A62FDF7E2FFE2
:10221C00074612E0001002400000424200700040ED
:10222C00600042428004424228010020D34D6210DB
:10223C00FDF7D0FFC01B4045D5D8336A9807F7D4BB
:10224C00002D3FF427AF1CE0344A354D1360FDF7E9
:10225C00C1FF064604E0FDF7BDFF801B0228C2D873
:10226C002B689907F7D42368D5E62D4A136843F4F5
:10227C008033136095E62A4A136A43F00103136214
:10228C00F4E6274AD36923F08053D36102E71A603E
:10229C00FDF7A0FF064604E0FDF79CFF801B02281B
:1022AC00A1D82B689901F7D4226AB2F5803F2DD0C2
:1022BC0001251B4B606A5968024321F474111948BB
:1022CC000A435A6005601C46FDF784FF054604E08E
:1022DC00FDF780FF401B022885D823689A01F7D5AB
:1022EC00F5E603F18043A3F53C331A6842F48022EF
:1022FC001A601A6842F480321A6052E642F0040204
:10230C001A621A6A42F001021A62AFE66B68A1689F
:10231C0023F400330B436B60CAE700BF000042425A
:10232C00001002406000424270B50126022586B0C2
:10233C00154B0DF1180E0FCB0EE90F00134C8DF849
:10234C0004608DF80550636803F00C02082A0BD169
:10235C00C3F383427244DB0312F8102C07D40C48ED
:10236C0000FB02F006B070BD0A4806B070BD636891
:10237C000848C3F3404300FB02F0734413F8143CC9
:10238C00B0FBF3F006B070BDF44B00080010024037
:10239C0000093D0000127A004E4A136803F007034F
:1023AC008B420BD2136823F007030B4313601368A3
:1023BC0003F00703994201D00120704703682DE90F
:1023CC00F0419A0706D5444C8568626822F0F00209
:1023DC002A436260DF0706460C4622D542683E4B14
:1023EC00012A1B6872D0022A6AD0990729D53A4D66
:1023FC0041F288386B6823F0030313436B60FDF7DD
:10240C00E9FE73680746012B49D0022B05D151E038
:10241C00FDF7E0FEC01B404555D86B6813F00C0F60
:10242C00F6D12C4A136803F007039C420CD21368B4
:10243C0023F0070323431360136803F007039C4244
:10244C0002D00120BDE8F08133685A0706D5224935
:10245C00F0684A6822F4E06202434A601B0707D521
:10246C001D4A3169536823F4605343EAC103536036
:10247C00FFF75AFF184B19495B68194AC3F303134A
:10248C00CB5C20FA03F300201360FDF761FE002003
:10249C00BDE8F081FDF79EFEC01B404513D86B686C
:1024AC0003F00C03042BF5D1BBE7FDF793FEC01B27
:1024BC00404508D86B6803F00C03082BF5D1B0E746
:1024CC00980194D4BDE70320BDE8F0819D038ED420
:1024DC00B7E700BF00200240001002406451000822
:1024EC0028010020014B1868704700BF280100200C
:1024FC00044B05495B68054AC3F30223CB5C1068A7
:10250C00D840704700100240745100082801002088
:10251C002DE9F0410446006882B0C30727D53B4B38
:10252C00DA69D7003BD53A4B00251A68D60544D555
:10253C00364A136A13F440730FD0616801F440708B
:10254C0083420BD001270026136A324923F44070D2
:10255C000F600E60D907106246D461682B4A136A6B
:10256C0023F440730B431362002D38D1206883078A
:10257C000DD410F0100007D00020244AE1685368F5
:10258C0023F480030B43536002B0BDE8F0811F4A73
:10259C00A168536823F440430B435360E9E7DA69BD
:1025AC00012542F08052DA61DB6903F0805301931C
:1025BC00019B174B1A68D605BAD41A681E4642F40A
:1025CC0080721A60FDF706FE07463368D805AFD453
:1025DC00FDF700FEC01B6428F7D90320D4E7D369AC
:1025EC0023F08053D361C1E71646FDF7F3FD41F2AA
:1025FC008837804605E0FDF7EDFDA0EB0800B842FA
:10260C00EBD8336A9A07F6D5A7E700BF0010024053
:10261C00007000404004424203680020DA6842F037
:10262C000102DA601A6842F001021A60704700BFBA
:10263C0090F83C30012B40D00222F0B40125036805
:10264C0080F83D209A680C6822F47F4222F07702D1
:10265C00402C80F83C509A6073D018D9702C60D004
:10266C002DD9B4F5805F57D0B4F5005F1CD18A68C2
:10267C004D68CC6899682A4342EA042221F47F41D0
:10268C000A439A609A6842F480429A600CE0102CDB
:10269C0032D038D9202C6CD0302C05D19A6822F04D
:1026AC00700242F037029A600023F0BC012280F8DD
:1026BC003C3080F83D201846704702207047502C63
:1026CC005ED0602CF0D11C6A4D6824F01004CE68EA
:1026DC001C6299691A6A21F4704122F0A00242EA44
:1026EC00051241EA063199611A629A6822F0700269
:1026FC0042F067029A60D7E79A6822F0700242F0C3
:10270C0017029A60D0E7002CCED19A6822F07002A2
:10271C0042F007029A60C7E79A6822F007029A60B3
:10272C00C2E78A684D68CC6899682A4342EA042259
:10273C0021F47F410A439A609A6842F077029A60CA
:10274C00B2E71D6A1E6A4C6826F00106CF681E624D
:10275C009A6925F00A0122F0F00242EA071221439D
:10276C009A6119629A6822F0700242F047029A60EC
:10277C009AE79A6822F0700242F027029A6093E777
:10278C001D6A1E6A4C6826F00106CF681E629A69A3
:10279C0025F00A0122F0F00242EA071221439A6165
:1027AC0019629A6822F0700242F057029A607BE735
:1027BC00704700BF704700BF704700BF704700BF35
:1027CC00704700BF036810B51A690446910702D51B
:1027DC00DA68920762D41A69500702D5DA68510791
:1027EC0049D41A69120702D5DA68100731D41A696C
:1027FC00D20602D5DA68D00618D41A69D10702D5E8
:10280C00DA68D2076BD41A69100602D5DA68110699
:10281C006DD41A69520602D5DA68500657D41A6973
:10282C00910602D5DA68920649D410BD6FF01001FA
:10283C0008221961DB69204613F4407F227761D1AD
:10284C00FFF7B8FF2046FFF7B9FF00222368227775
:10285C00D3E76FF0080104221961DB692046990760
:10286C00227755D1FFF7A6FF2046FFF7A7FF0022DE
:10287C0023682277BBE76FF00401022219619B6980
:10288C00204613F4407F22773FD1FFF793FF204679
:10289C00FFF794FF002223682277A2E76FF0020172
:1028AC00012219619B6902779B0728D1FFF782FFF0
:1028BC002046FFF783FF0022236822778BE76FF017
:1028CC0020022046BDE810401A6100F0A5B86FF058
:1028DC00400220461A61FFF773FF23689FE76FF0F1
:1028EC00010220461A61FFF763FF23688BE76FF044
:1028FC00800220461A6100F091F8236889E7FFF7FF
:10290C005BFFD8E7FFF758FF9FE7FFF755FFC1E7DD
:10291C00FFF752FFABE700BF1D4A0368904221D07E
:10292C00B0F1804F30B414D0A2F59432904210D054
:10293C0002F5806290420CD04D6923F080032B434A
:10294C008C680A6803600123C462826230BC4361F4
:10295C0070474A6823F070031343CA6823F440732A
:10296C001343E9E74A6823F070031343CA6823F45E
:10297C00407313434A6923F08003134303608B684D
:10298C00C3620B6883620B69036301234361704765
:10299C00002C0140B8B190F83D3010B503F0FF02A7
:1029AC0004465BB10223206884F83D30211DFFF7FB
:1029BC00B3FF0123002084F83D3010BD80F83C208B
:1029CC0001F0EEFDEEE70120704700BF90F83C30BF
:1029DC00012B1FD002460220F0B5002501261368FA
:1029EC0082F83D005C68D1F800E024F070045C6073
:1029FC0058684F6840EA0E0058609C68284624F0DE
:102A0C0080049C6099683943996082F83D6082F833
:102A1C003C50F0BD02207047704700BF704700BFAC
:102A2C0084B001A880E80E0004B00020704700BFFD
:102A3C000246B0F8403000209BB243F43F43A2F86A
:102A4C004030704744F2FF230246B0F8401000209B
:102A5C000B40A2F8403070470020704784B070B42F
:102A6C00044601250020A4F84050A4F84000A4F826
:102A7C004400A4F85000B4F8405004AEADB245F494
:102A8C003F45A4F8405086E80E0070BC04B0704777
:102A9C00CB7870B4032B10D8DFE813F06701590121
:102AAC0004004B010A7830F8223023F4EC4323F075
:102ABC0070031B041B0C20F8223040F60F740A78AC
:102ACC0030F8223042F40045234045F080052B437A
:102ADC0020F822308B7A002B34D14B78002B00F06D
:102AEC00E080B0F850300D788A889BB203EBC503B8
:102AFC00520800EB43035200C3F800240D7830F861
:102B0C00253000EB85025B060BD530F825301C40D8
:102B1C0044F4004444F0C00420F825400A7800EB4B
:102B2C0082021388002070BC23F4E04323F040039E
:102B3C001B041B0C83F0200343F4004343F080037D
:102B4C001380704740F60F630A7800F5806530F803
:102B5C002260334043F4014343F0800320F82230D9
:102B6C00B0F85020CE880B7892B2760802EBC302F4
:102B7C007600B0F8503045F812600A890E789BB296
:102B8C000433520803EBC603520045F813204B786C
:102B9C00002B49D10B7830F8235000EB83026D04E5
:102BAC000BD530F82320144044F4404444F0800406
:102BBC0020F823400A7800EB820213885E060BD5BE
:102BCC0040F60F731488234043F4004343F0C003D2
:102BDC0013800A7800EB820240F60F7448F28005ED
:102BEC0013881C4044F4004444F0C00414800A7858
:102BFC0030F8223023F4804323F070031B041B0CA9
:102C0C0083F440532B4320F822300A7830F82230DA
:102C1C0023F4E04323F040031B041B0C2B4320F84C
:102C2C00223070BC002070470B7830F8235000EB3A
:102C3C0083026D040BD530F82320144044F4404437
:102C4C0044F0800420F823400A7800EB82021388B9
:102C5C005B0600F1988040F60F7448F280051388EB
:102C6C001C4044F4404444F0800414800A7830F84A
:102C7C00223023F4E04323F040031B041B0C2B43B2
:102C8C0020F822300A7830F8223023F4804323F0E5
:102C9C0070031B041B0C2B4320F8223070BC00204B
:102CAC007047B0F850208C880B7892B204326408CC
:102CBC0002EBC302640000F58065B0F8503045F8B3
:102CCC0012400A690C789BB206333E2A03EBC4030C
:102CDC0066D8C2F34F04D20744BF0134A4B2A40295
:102CEC00A4B245F813400C7830F8243000EB840281
:102CFC005E040DD540F60F7330F82420134043F4D6
:102D0C00404343F0800320F824300A7800EB820221
:102D1C001388002070BC23F4804323F070031B0441
:102D2C001B0C83F4405343F4004343F080031380A3
:102D3C0070470A7830F8223023F4EC4323F0700308
:102D4C001B041B0C43F4C06320F82230B5E60A7850
:102D5C0030F8223023F4EC4323F070031B041B0CDB
:102D6C0043F4806320F82230A7E60A7830F822304A
:102D7C0023F4EC4323F070031B041B0C43F400738B
:102D8C0020F8223099E640F60F731488234043F460
:102D9C00004343F0C00313800A7800EB82025AE729
:102DAC00C2F34F14D60604BF04F1FF3294B2034AA7
:102DBC0042EA842292B245F8132094E70080FFFF88
:102DCC008B7A30B43BBB4B780C78002B00F0AE8088
:102DDC0030F8243000EB84025B060DD540F60F73FF
:102DEC0030F82420134043F4004343F0C00320F890
:102DFC0024300A7800EB8202138823F4E04323F09A
:102E0C0040031B041B0C43F4004343F080030020DD
:102E1C0030BC138070474B78002B49D10B7830F8BD
:102E2C00234000EB830264040DD540F60F7230F89A
:102E3C002340224042F4404242F0800220F82320FA
:102E4C000A7800EB820213885D060BD540F60F73EF
:102E5C001488234043F4004343F0C00313800A78E2
:102E6C0000EB820240F60F7448F2800513881C4078
:102E7C0044F4004444F0C00414800A7830F8223042
:102E8C0023F4804323F070031B041B0C2B4320F80A
:102E9C0022300A7830F8223023F4E04323F0400348
:102EAC001B041B0C2B4320F8223030BC0020704735
:102EBC000B7830F8234000EB830264040DD540F608
:102ECC000F7230F82340224042F4404242F080021C
:102EDC0020F823200A7800EB820213885B063FD48B
:102EEC0040F60F7448F2800513881C4044F44044AB
:102EFC0044F0800414800A7830F8223023F4E04344
:102F0C0023F040031B041B0C2B4320F822300A78BF
:102F1C0030F8223023F4804323F070031B041B0C85
:102F2C002B4320F8223030BC0020704730F824307E
:102F3C0000EB84025D040DD540F60F7330F82420AD
:102F4C00134043F4404343F0800320F824300A78C4
:102F5C0000EB8202138823F4804323F0700350E7C4
:102F6C0040F60F731488234043F4004343F0C0032E
:102F7C0013800A7800EB8202B2E700BFF0B54C7800
:102F8C008B69012C0A6960D0934230D800251A460F
:102F9C008B7A8D6183BBB0F850300C789BB20633C2
:102FAC003E2A03EBC40300F5806540F28380C2F334
:102FBC004F14D60604BF04F1FF3294B2754A42EAAC
:102FCC00842292B245F813200A7830F8223023F488
:102FDC00804323F070031B041B0C83F4405343F415
:102FEC00004343F0800320F822300020F0BD9B1AF0
:102FFC008B618B7A002BCED0002CE5D1B0F8503001
:10300C000C789BB202333E2A03EBC40300F58065B7
:10301C0040F29580C2F34F16D70604BF06F1FF3479
:10302C00A6B25C4C44EA8624A4B245F813404B7813
:10303C00002B40F09280B0F850300A789BB20633E7
:10304C0003EBC20345F81340BEE793423DD800247E
:10305C001A468B7A8C61002B3CD196B28F88013644
:10306C0000F5806E76100EEB47074C6906D034F8ED
:10307C00025B27F8235001339E42F8D1B0F8503050
:10308C000C789BB2023303EBC4034EF813200A787E
:10309C0030F8223023F4E04323F040031B041B0CD4
:1030AC0083F0300343F4004343F0800320F82230D4
:1030BC000020F0BDC2F34F04D20744BF0134A4B2C8
:1030CC00A402A4B245F813407EE79B1A8B618B7A5D
:1030DC00002BC2D00C7800F5806630F8243013F049
:1030EC00400FB0F850309BB203F1020303EBC40362
:1030FC0012BF46F81320CC8846F8132092B218BFA2
:10310C000C890132521006EB440618BF00234C699F
:10311C0006D034F8025B26F8235001339342F8D1E1
:10312C004B783BBB40F60F730A7830F822402340B3
:10313C0043F4004343F0C00320F82230A7E7C2F366
:10314C004F04D60744BF0134A4B2A402A4B245F87C
:10315C0013404B78002B3FF46EAF012B7FF434AF50
:10316C00B0F850300C789BB2023303EBC40345F833
:10317C00132029E7012B8AD140F60F730A7830F817
:10318C002240234043F4404343F0800320F8223094
:10319C007DE700BF0080FFFF0A782AB34B788BB91C
:1031AC0030F8223023F4804323F070031B041B0CF3
:1031BC0083F4805343F4004343F0800320F822301F
:1031CC000020704730F8223023F4E04323F0400312
:1031DC001B041B0C83F0100343F4004343F08003E7
:1031EC0020F8223000207047038823F4804323F01A
:1031FC0040031B041B0C83F4805383F0100343F433
:10320C00004343F080030380002070474B7810B4D8
:10321C002BB30C7830F8243000EB84025B060DD510
:10322C0040F60F7330F82420134043F4004343F06E
:10323C00C00320F824300A7800EB820213880020A7
:10324C0023F4E04323F040031B041B0C83F03003F6
:10325C0043F4004343F08003138010BC70470B7899
:10326C0030F8234000EB830264040DD540F60F7256
:10327C0030F82340224042F4404242F0800220F8D1
:10328C0023200A7800EB82021388002023F4804369
:10329C0023F070031B041B0C83F4405343F40043D2
:1032AC0043F08003138010BC704700BF11B980231A
:1032BC00A0F84C3000207047002070470020704769
:1032CC00B0F8440080B2704700207047013300F51D
:1032DC0080605B1000EB420209D030B4002431F85E
:1032EC00025B22F824500134A342F8D130BC704761
:1032FC00013300F580605B1000EB420205D052F800
:10330C00040B013B21F8020BF9D17047D0F81832AD
:10331C001BB10020C3F8140270470220704700BF95
:10332C00D0F81C3210B5D0F818425BB194F80002FA
:10333C00FF2807D09B6894F8012221469847FF2369
:10334C0084F80032002010BD4323038000487047EE
:10335C004000002043230380004870478400002075
:10336C004323038000487047D40000200A230380C5
:10337C0000487047C800002038B50446D0F81852F1
:10338C0001F07CFBD4F81832C5F80C024BB1D4F820
:10339C001C3205F50371DB68D5F804029847002050
:1033AC0038BD022038BD00BFF8B50B780C4613F0C1
:1033BC00600213D0202A0FD1CE88054626B31B06F7
:1033CC00D0F8187213D44B78324687F8003287F84D
:1033DC000162394600F024FC0020F8BD4B780A2B22
:1033EC00FAD101220C4900F005FC0020F8BDD0F800
:1033FC001C32324639469B6860789847E2883946D9
:10340C00284600F0F7FBE7E7D0F81C3232469B6801
:10341C0048789847E0E700BF8C01002010B50446BF
:10342C00812101F0C7FA0121204601F0C3FA2046A0
:10343C00822101F0BFFAD4F8183253B1D4F81C32FF
:10344C005B689847D4F8180201F022FB0023C4F8FB
:10345C001832002010BD00BFF8B5037C044673BBC6
:10346C004FF400730222812101F094FA4FF400739F
:10347C0002220121204601F08DFA08230322822129
:10348C00204601F087FA4FF4077001F0FDFA05466B
:10349C00C4F8180230B30026D4F81C321B689847C5
:1034AC00277CD5F80422C5F814622046C5F81862AA
:1034BC008FB14023012101F0D3FA3046F8BD4023EF
:1034CC000222812101F066FA4023022201212046CA
:1034DC0001F060FAD1E74FF40073012101F0C0FA5A
:1034EC003846F8BD0120F8BD19B1C0F81C120020F7
:1034FC0070470220704700BFD0F818320020C3F884
:10350C000812C3F810227047D0F818320020C3F804
:10351C0004127047D0F818228AB110B5D2F81442B0
:10352C000CB1012010BD0121B2F81032C2F81412F6
:10353C00D2F80822812101F085FA204610BD022024
:10354C00704700BFD0F818228AB110B5047CD2F8AD
:10355C0004222CB14023012101F082FA002010BD7D
:10356C004FF40073012101F07BFA204610BD0220BC
:10357C00704700BF88B108B5D0F8143213B10023DE
:10358C00C0F8143209B1C0F810120123027080F88F
:10359C00FC3101F0A7F9002008BD0220704700BFE4
:1035AC0019B1C0F81412002070470220704700BFF8
:1035BC0008B501F0E1F9002008BD00BF08B5D0F84E
:1035CC00143213B11B68984708B1022008BD08BD1E
:1035DC0008B5D0F814325B689847002008BD00BFCE
:1035EC0038B5044600F50275284600F0C9FA0120EA
:1035FC0094F80812B4F80E2201F01F038342C4F8A9
:10360C00F401C4F8F82115D00ED3022B06D001F02A
:10361C008001204601F0DCF9002038BD2946204607
:10362C0000F046FA002038BD2946204600F0D4F8B8
:10363C00002038BD2946204600F01CFA002038BD79
:10364C0010B5044631B91346D0F8F421032A0CD036
:10365C00002010BDD0F814329B69002BF8D090F8E4
:10366C00FC21032AF4D19847F2E7D0F80C11D0F8DA
:10367C00102191420CD8D0F814321B691BB190F870
:10368C00FC21032A0FD0204600F0E2FA002010BDE6
:10369C00891A8A4228BF0A46C0F80C1192B2194600
:1036AC0000F0CEFAD4E79847EDE700BF70B50446BA
:1036BC0051B91346D0F8F421022A15D094F80032EF
:1036CC00012B0CD0002070BDD0F814325B69002B9C
:1036DC00F8D090F8FC21032AF4D19847F2E70023A4
:1036EC0084F80032002070BDC669026A964223D865
:1036FC008369B3FBF2F502FB15358DB99A420FD8ED
:10370C00D0F8F82193420BD22A4600F081FAC4F883
:10371C00F8512B462A462946204601F0A1F9CDE75F
:10372C00D4F81432DB681BB194F8FC21032A0BD0BB
:10373C00204600F099FAC1E7B21A0D46C26119464B
:10374C0092B200F065FAE4E720469847F0E700BF34
:10375C0038B500224025044611462B4601F01AF9D3
:10376C002B460022C4F810512046802101F012F99A
:10377C000122D4F81832256284F8FC212BB1D4F83C
:10378C00143221795B6820469847002038BD00BF71
:10379C0001740020704700BF0346042290F8FC110E
:1037AC00002083F8FD1183F8FC217047034690F844
:1037BC00FD21002083F8FC21704700BF90F8FC210C
:1037CC00032A01D00020704708B5D0F81432DB6909
:1037DC0003B19847002008BD30B54B7883B00D4637
:1037EC000446092B0BD8DFE803F035480A580A05C4
:1037FC00650A7B158B8813B9CB88002B7DD0802173
:10380C00204601F0E5F82046002101F0E1F8002007
:10381C0003B030BD8978964D01292970EFD890F806
:10382C00FC31022B00F08780032BE8D1002900F03B
:10383C0014814168012909D0C9B2FFF7C9FE297862
:10384C0020466160FFF7BAFE0228D8D0204600F06F
:10385C00FFF9DCE7012290F8FC310321023B934293
:10386C00CDD8D0F80432C26003B1C160022204F199
:10387C000C01204600F0BEF9C9E790F8FC31023B80
:10388C00012BBCD84B88012BC1D10022D0F81432AB
:10389C00C0F804229B689847D8E74B88012BB6D117
:1038AC00D0F81422C0F8043293689847204600F0F0
:1038BC00CFF9ACE74A88130A013B062B9FD801A12C
:1038CC0051F823F0B3390008D5390008C339000882
:1038DC000B3800080B3800089D3900085D390008CA
:1038EC00CA88012A8BD190F8FC31022B1CD0032BF7
:1038FC0085D1011D00F07EF989E790F8FC318D78B7
:10390C00032B05F07F053FF47AAF80F8FE51294672
:10391C0001F08AF8204600F09BF9002D00F0908011
:10392C00022384F8FC3172E70023014641F8083F7A
:10393C0000F060F96BE7002988D001210323416076
:10394C0080F8FC31FFF73AFE02287FF47FAF56E790
:10395C00037C002B7FF453AFD0F814320DF106002A
:10396C001B6B984707234370BDF80630002B3FF4C0
:10397C004EAFEA88002A3FF44AAF934228BF134661
:10398C0001461A462046ADF8063000F033F93EE702
:10399C00037C002B7FF433AFD0F814320DF106000A
:1039AC005B6B9847E0E7D0F810320DF106011B680D
:1039BC00007C9847D8E7D2B2052A3FF620AFDFE863
:1039CC0002F0271F170F372F037C002B3CD1D0F8A8
:1039DC0014320DF106009B6A984702234370C3E72B
:1039EC00D0F810320DF106011B69007C9847BBE73B
:1039FC00D0F810320DF10601DB68007C9847B3E774
:103A0C00D0F810320DF106019B68007C9847ABE7AB
:103A1C00D0F810320DF106015B68007C9847A3E7E3
:103A2C00D0F810320DF106019B69007C98479BE79A
:103A3C00D0F810320DF106015B69007C984793E7D2
:103A4C00012384F8FC31E2E6D0F814320DF10600C3
:103A5C00DB6A98470223437086E70223416080F8B3
:103A6C00FC31FFF7B5FD204600F0F2F8CFE600BFC1
:103A7C008D01002038B590F8FC310446032B03D19E
:103A8C000B790D46012B08D9802100F0A1FF2046AF
:103A9C00002100F09DFF002038BDD0F814329B6847
:103AAC009847EB88002BF6D1204600F0D1F8F2E7CE
:103ABC0070B50B788A8803F06003202B054657D02D
:103ACC004B780C46012BD6B234D019D3032B15D11D
:103ADC0090F8FC31022B31D0032B40D14B8823B909
:103AEC00730602D0314600F073FFD5F8143221462C
:103AFC009B6828469847284600F0AAF8002070BD1D
:103B0C0090F8FC31022B19D0032B28D106F07F043E
:103B1C00130600EB041431464CBF143404F58274C4
:103B2C0000F072FF48BB206021462846022200F0BC
:103B3C0061F8E3E790F8FC31022B05D17206DDD079
:103B4C00314600F045FFD9E7032B08D14B88002BF9
:103B5C00D4D17106CFD0314600F048FFC5E78021A3
:103B6C0000F036FF2846002100F032FF002070BD27
:103B7C00D0F814329B689847C0E701232360D3E741
:103B8C000B7803704B784370CA788B7803EB022365
:103B9C0043804A790B7903EB02238380CA798B79B2
:103BAC0003EB0223C380704700B3037830B4F3B146
:103BBC000446002314F8015F0133DBB2002DF9D168
:103BCC005B000233DCB2032513800C704D7004785B
:103BDC005CB1022300255A1CD2B2CC548D5410F87F
:103BEC00014F0233DBB2002CF5D130BC70470224FC
:103BFC002346E8E738B5134602250A468361C361BC
:103C0C00C0F8F451002100F01DFF002038BD00BFAA
:103C1C0008B513460A46002100F014FF002008BD29
:103C2C0038B5134603250A46C0F80831C0F80C31E4
:103C3C00C0F8F451002100F013FF002038BD00BF84
:103C4C0008B513460A46002100F00AFF002008BD03
:103C5C0008B504220023C0F8F42119461A4600F0D6
:103C6C00F1FE002008BD00BF08B505220023C0F8F6
:103C7C00F42119461A4600F0F3FE002008BD00BFDF
:103C8C0008B5044C00224FF480512046FCF78CFC04
:103C9C00F8E700BF000C0140F0B54FF4803301246D
:103CAC00002102254FF4801295B00AA80A940E94B4
:103CBC000B9312930C9111951392FEF749F958BB83
:103CCC0003460F2790264FF4E062214605A806957F
:103CDC000893059707960992FEF75EFBE0B9102250
:103CEC004FF4800301A801920493FEF711FC0446E3
:103CFC0090B9FEF7F7FB094BA3FB00308009FCF7EA
:103D0C00D5FA0420FCF7EAFA224621464FF0FF30A0
:103D1C00FCF78AFA15B0F0BDFFF7B2FFD34D621075
:103D2C0038B500EB8000094C451D2544044414F8BB
:103D3C00010B00F03FFAAC42F9D1054A1378063377
:103D4C001370BDE8384000F089BA00BF044C00087D
:103D5C005604002080B594B00127FCF71DFAFFF73C
:103D6C009BFF0022864BFB219869154640F02000F2
:103D7C0098619C69834804F020040594059C9C6917
:103D8C004FF0020844F004049C619C694FF4805687
:103D9C0004F004040694069C9C6944F008049C619D
:103DAC009B69794C03F008030793079BFCF7FCFB1A
:103DBC003A4604217348FCF7F7FB3A464FF480511E
:103DCC007248FCF7F1FBFF2310A96E481093119772
:103DDC001295CDF84C80FCF7DFFA4FF4205310A964
:103DEC006A48109311951297FCF7D6FA10A96748F8
:103DFC00CDF84C80119712951096FCF7CDFA4FF434
:103E0C00407310A95F48109311951297FCF7C4FAF0
:103E1C004FF080410B224FF6FF732046A5602561C1
:103E2C00A56184E80600E360FEF7B4FD002840F0CD
:103E3C00A58010A920461096FEF7FAFB0346002831
:103E4C0040F09C8020460AA90A930B93FEF7BEFD16
:103E5C000346002840F0928042F6DF651D224C4C50
:103E6C004C4920466560A3602361A3612160E26038
:103E7C00FEF790FD002840F0818014A941F8206DD8
:103E8C002046FEF7D5FB0346002877D1202220469A
:103E9C000DEB020109930892FEF798FD05460028E8
:103EAC006CD100F069FC4FF480413B4C3B4A3C4BDD
:103EBC0020462161A560E5606561A561E56125622B
:103ECC0084E80C00FCF7D4FC002857D100F080F9F2
:103EDC004FF48032334E029201973B4620460096B7
:103EEC00D022EC21FCF752FDDFF8C090DFF8C48043
:103EFC0008B989F800802648FEF78EFB00F0E6F939
:103F0C001820022100F0D2F9CF20274CFFF708FF30
:103F1C0014F8010F0028F9D140F6B830FCF760F91D
:103F2C0000F00CFA4FF47A70FCF75AF91A4F1F4D47
:103F3C001C4C4FF480320123029200960193D02244
:103F4C00EC213846FCF722FD08B989F800804FF4C3
:103F5C00FA70FCF745F92846FCF7F2F881B22846CE
:103F6C0000F04CFC0821124800F048FC2046FCF7FD
:103F7C00E7F881B2204600F041FCDAE7FFF780FE5B
:103F8C0000100240000801405C040020000C0140BD
:103F9C001404002000040040BC0300200054004026
:103FAC00A0860100180100205451000820010020B7
:103FBC00045100085C51000838B564240F4B104DB7
:103FCC00A3FB00235B0904FB1304A4B203F1300030
:103FDC00A5FB0435C0B2ED08FFF7A2FE05F13000D9
:103FEC00C0B2FFF79DFE05EB8500A4EB400030301E
:103FFC00C0B2BDE83840FFF793BE00BF1F85EB5140
:10400C00CDCCCCCC10B500F061F920201C4CFFF7C6
:10401C0087FE14F8010F0028F9D1012100F046F9B0
:10402C00EE20184CFFF77CFE14F8010F0028F9D194
:10403C00022100F03BF92020134CFFF771FE14F81D
:10404C00010F0028F9D1032100F030F920200F4C8A
:10405C00FFF766FE14F8010F0028F9D1042100F0D7
:10406C0025F9F2200A4CFFF75BFE14F8010F00282B
:10407C00F9D1084BBDE810401888FFF79DBF00BF71
:10408C001851000824510008305100083C51000818
:10409C00485100089C04002008B50121002000F0C4
:1040AC0005F92020FFF73CFE0020022100F0FEF86D
:1040BC00BDE80840EE20FFF733BE00BF08B5022173
:1040CC00002000F0F3F82020FFF72AFE0020032147
:1040DC0000F0ECF8BDE80840EE20FFF721BE00BF71
:1040EC0008B50321002000F0E1F82020FFF718FEAE
:1040FC000020012100F0DAF8BDE80840EE20FFF7BF
:10410C000FBE00BF08B5044C00224FF4805120466E
:10411C00FCF74AFAF8E700BF000C014010B5094C57
:10412C00002220460821FCF73FFA204601221021EC
:10413C00FCF73AFA2046BDE8104001220821FCF7B2
:10414C0033BA00BF0008014010B5094C00222046CC
:10415C000821FCF729FA204600221021FCF724FA4A
:10416C002046BDE8104001220821FCF71DBA00BF13
:10417C000008014038B50022054640210C48FCF7E8
:10418C0013FA072404E0FFF7C9FF14F1FF3408D336
:10419C0045FA04F3DB07F6D4FFF7D6FF14F1FF342E
:1041AC00F6D2BDE83840012240210148FCF7FCB9A9
:1041BC000008014010B50446012204482021FCF7F8
:1041CC00F3F92046BDE81040FFF7D4BF00080140CA
:1041DC0010B5214C012220464021FCF7E5F9204680
:1041EC0000228021FCF7E0F9204601228021FCF717
:1041FC00DBF9204600222021FCF7D6F92120FFF71D
:10420C00B9FF204600222021FCF7CEF91320FFF73E
:10421C00B1FF204600222021FCF7C6F90420FFF74D
:10422C00A9FF204600222021FCF7BEF9C020FFF791
:10423C00A1FF204600222021FCF7B6F92020FFF731
:10424C0099FF204600222021FCF7AEF9BDE8104072
:10425C000C20FFF78FBF00BF0008014010B5074BC3
:10426C0007481C78002284F080042021FCF79CF97C
:10427C002046BDE81040FFF77DBF00BF560400206C
:10428C000008014010B5074B07481C780022403449
:10429C00E4B22021FCF788F92046BDE81040FFF776
:1042AC0069BF00BF580400200008014010B50C463F
:1042BC00044B1870FFF7D2FF034B1C70BDE8104085
:1042CC00FFF7E0BF5604002058040020F8B5002585
:1042DC00174F184E3D70FC24FFF7C0FF3570FFF7E9
:1042EC00D1FF05F1804505F58435012220212846B2
:1042FC00FCF75AF90020FFF73DFF631E13F0FF0493
:10430C00F3D103233C703370FC24FFF7A7FFFFF7B6
:10431C00B9FF094D012220212846FCF745F9002060
:10432C00FFF728FF631E13F0FF04F3D1F8BD00BFA5
:10433C00560400205804002000080140F8B5002263
:10434C000323524D524E2A7033705424FFF786FFCC
:10435C00FFF798FF4F4F012220213846FCF724F934
:10436C000120FFF707FF631E13F0FF04F3D10523B1
:10437C002C7033705424FFF771FFFFF783FF454F08
:10438C00012220213846FCF70FF98020FFF7F2FEBE
:10439C00631E13F0FF04F3D12C703470FFF75EFF33
:1043AC005424FFF76FFF3B4F012220213846FCF7C6
:1043BC00FBF80120FFF7DEFE631E13F0FF04F3D1C0
:1043CC0002232C7033705424FFF748FFFFF75AFF79
:1043DC00304F012220213846FCF7E6F88020FFF709
:1043EC00C9FE631E13F0FF04F3D122462021294895
:1043FC00FCF7DAF82220FFF7BDFE06272C7034708C
:10440C00FFF72CFFFFF73EFF224C01222021204614
:10441C00FCF7CAF8FF20FFF7ADFE7B1E13F0FF0779
:10442C00F3D1532337702B700624FFF717FFFFF7D8
:10443C0029FF184F012220213846FCF7B5F8FF2040
:10444C00FFF798FE631E13F0FF04F3D14023347082
:10445C002B700624FFF702FFFFF714FF0D4D01220E
:10446C0020212846FCF7A0F8FF20FFF783FE621EF0
:10447C0012F0FF04F3D1224606482021FCF794F8F1
:10448C00BDE8F8402020FFF775BE00BF56040020A1
:10449C005804002000080140254B00B59A6983B0F0
:1044AC0042F001029A619A69032002F00102009223
:1044BC00009ADA6942F08052DA61DB6903F08053CA
:1044CC000193019BFBF79EFE00226FF00B0011463F
:1044DC00FBF7AAFE00226FF00A001146FBF7A4FEC0
:1044EC0000226FF009001146FBF79EFE00226FF0D0
:1044FC0004001146FBF798FE00226FF003001146F2
:10450C00FBF792FE00226FF001001146FBF78CFEC8
:10451C0000224FF0FF301146FBF786FE054A536828
:10452C0023F0E06343F00073536003B05DF804FBC9
:10453C0000100240000001400268164B9A4200D065
:10454C00704710B512220323C02486B002A912486A
:10455C00029403920593FBF71FFF00220F4B1146A9
:10456C00DC691F2044F40014DC61DB6903F40013E4
:10457C000193019BFBF758FE1F20FBF78BFE0022DB
:10458C0020201146FBF750FE2020FBF783FE06B0DF
:10459C0010BD00BF00540040000C01400010024050
:1045AC0010B5036882B0B3F1804F04D0124A934225
:1045BC000ED002B010BD03F50433DA6942F00102EB
:1045CC00DA61DB6903F001030093009B02B010BDBC
:1045DC0000220A4B1146DC691D2044F00204DC6108
:1045EC00DB6903F002030193019BFBF71DFE1D2009
:1045FC00FBF750FEDDE700BF000400400010024056
:10460C00704700BFFEE700BFFEE700BFFEE700BF3C
:10461C00FEE700BF704700BF704700BF704700BF88
:10462C0008B5FBF7CBFDBDE80840FBF765BE00BF46
:10463C000148FDF781B900BFC4160020F8B52E481B
:10464C00FEF7C0F84FF400512C48FBF7A7FF20BB36
:10465C002B4C237843B34FF400612848FBF79EFFA3
:10466C00A8B9284C2578BDB9274B1E78002E32D01E
:10467C00012E09D1254F3B78012B38D033D3022B97
:10468C0002D1FFF72DFD3D7001232370F8BD1D4BAA
:10469C001A780AB100221A70F8BD194B1A78002A40
:1046AC00D9D000221A70D6E717490A7862B1012ACC
:1046BC000ED1164A107802280AD10B701370FFF72E
:1046CC0005FEFFF73BFE03E001230B70FFF79AFC9E
:1046DC0001232370BFE74FF480510848FBF768FFB4
:1046EC0001232370F8BDFFF7D7FC3E70CCE7FFF732
:1046FC00E5FC02233B70C7E714040020000C0140CA
:10470C0010040020BA030020B90300205704002035
:10471C000148FCF739BB00BFBC0300200148FCF783
:10472C001BBF00BFBC03002030B44FF41F054FF07B
:10473C0000640E4B0E4A19680E4841F001011960D5
:10474C0059680A405A601A6822F0847222F4803246
:10475C001A601A6822F480221A605A6822F4FE0247
:10476C005A609D60846030BC704700BF00100240EE
:10477C000000FFF800ED00E010B5094C00222046C7
:10478C000849FEF7F7FE20460749FEF709FF2046C9
:10479C000649FEF7A9FE2046BDE81040FEF708BF0B
:1047AC00A00400203C010020080000202C01002067
:1047BC00002070470020704710B5054C014620467C
:1047CC00FEF7A2FE2046FEF7BDFE002010BD00BF86
:1047DC00A004002010B5064C002220460549FEF727
:1047EC008BFE20460449FEF78FFE002010BD00BF53
:1047FC00A0040020C40E0020C40600200B4B10B5F2
:10480C00D3F81842D4F81432002BFBD1D4F814325C
:10481C000BB1012010BD0A4601460448FEF76CFEA0
:10482C00BDE810400148FEF775BE00BFA004002093
:10483C0002680D4B9A4200D07047002203F5DA3320
:10484C0010B5DC6982B044F40004DC61DB6911460C
:10485C0003F4000301931420019BFBF7E5FC1420E7
:10486C00FBF718FD02B010BD005C004000F22C41BB
:10487C00D0F85C04FEF7B4BE00EB4113D3F83C2235
:10488C00D0F85C04FEF7DCBE00EB4113DA6BD0F819
:10489C005C04FEF70BBF00BFD0F85C04FEF78EBFC4
:1048AC0010B504460121D0F85C04FEF771FFD4F872
:1048BC005C04BDE81040FEF74BBF00BF10B50446CA
:1048CC00D0F85C04FEF768FFA36923B1024A1369B0
:1048DC0043F00603136110BD00ED00E0D0F85C045A
:1048EC00FEF764BFF8B500220826022503211F4BF2
:1048FC001F4FC3F85C040446C0F8203218461F60F2
:10490C005E609D60D9609A61DA611A62FCF7FCFE08
:10491C0020B140F22B111748FFF7F4FB00221823AB
:10492C001146D4F82002FDF7F9FA58230022802111
:10493C00D4F82002FDF7F2FAC02300228121D4F82A
:10494C002002FDF7EBFA4FF4887300220121D4F812
:10495C002002FDF7E3FAD4F820024FF48073002212
:10496C008221FDF7DBFA0020F8BD00BFC416002041
:10497C00005C00408051000808B5D0F82002FCF71C
:10498C002FFF03289ABF024B185C022008BD00BF02
:10499C007C51000810B51C46D0F820021346224664
:1049AC00FCF74AFF03289ABF014B185C022010BD8C
:1049BC007C51000808B5D0F82002FCF763FF0328EF
:1049CC009ABF024B185C022008BD00BF7C51000846
:1049DC0008B5D0F82002FDF74FFA03289ABF024B16
:1049EC00185C022008BD00BF7C51000808B5D0F847
:1049FC002002FDF76DFA03289ABF024B185C0220C7
:104A0C0008BD00BF7C5100080A06D0F8203204D43F
:104A1C0003EB411393F82A02704701F07F0103EB7B
:104A2C00411393F82A00704708B5D0F82002FCF720
:104A3C00EFFE03289ABF024B185C022008BD00BF92
:104A4C007C51000808B5D0F82002FCF75FFF032862
:104A5C009ABF024B185C022008BD00BF7C510008B5
:104A6C0008B5D0F82002FCF731FF03289ABF024B9F
:104A7C00185C022008BD00BF7C51000808B5D0F8B6
:104A8C002002FCF73BFF08BD004870479001002056
:104A9C00704700BF704700BF122301480B8070475E
:104AAC0058010020042301480B8070476C01002042
:104ABC0010B5044C0A4604482146FFF775F8204609
:104ACC0010BD00BF241B0020B051000810B5044CD1
:104ADC000A4604482146FFF767F8204610BD00BF80
:104AEC00241B0020C451000810B5044C0A4604488D
:104AFC002146FFF759F8204610BD00BF241B0020AB
:104B0C00DC51000810B5044C0A4604482146FFF756
:104B1C004BF8204610BD00BF241B00209451000808
:104B2C0010B5044C0A4604482146FFF73DF82046D0
:104B3C0010BD00BF241B0020A0510008002103E081
:104B4C000B4B5B58435004310A480B4B42189A42AA
:104B5C00F6D30A4A02E0002342F8043B084B9A427F
:104B6C00F9D3FFF7E1FD00F00FF8FFF7F3F870470A
:104B7C00F45100080000002070010020700100209A
:104B8C00241D0020FEE7000070B500250C4E0D4CD6
:104B9C00A41BA410A54209D100F01AF800250A4E56
:104BAC000A4CA41BA410A54205D170BD56F82530A3
:104BBC0098470135EEE756F8253098470135F2E76E
:104BCC00EC510008EC510008EC510008F0510008C1
:104BDC00F8B500BFF8BC08BC9E467047F8B500BFDE
:084BEC00F8BC08BC9E467047AE
:104BF40002030405060708090A0B0C0D0E0F10101A
:104C040000000000000000000000000000000000A0
:104C14000000000000000000000000000000000090
:104C24000000000000000000000000000000000080
:104C34000000000000000000000000000000000070
:104C44000000000000000000000000000000000060
:104C54000000000000000000000000000000000050
:104C64000000000000000000000000000000000040
:104C74000000000000000000000000000000000030
:104C84000000000000000000000000000000000020
:104C94000000000000000000000000000000000010
:104CA400000000000000005F00000007000700147F
:104CB4007F147F14242A7F2A124C2C1068643649EE
:104CC4005522500005030000001C2241000041222F
:104CD4001C0014083E081408083E08080000503060
:104CE4000010101010100060600000201008040272
:104CF4003E5149453E00427F4000426151494621B0
:104D040041454B311814127F1027454545393C4A1B
:104D1400494930017109050336494949360649496B
:104D2400291E0036360000005636000008142241C1
:104D34000014141414140041221408020151090629
:104D44003C425A560C7E1111117E7F494949363E28
:104D5400414141227F4141221C7F494949417F0908
:104D64000909013E4149497A7F0808087F00417FCB
:104D740041002040413F017F081422417F404040D0
:104D8400407F020C027F7F0408107F3E4141413E78
:104D94007F090909063E4151215E7F0919294646CA
:104DA4004949493101017F01013F4040403F1F20F3
:104DB40040201F3F4038403F6314081463070870C5
:104DC40008076151494543007F414100020408102E
:104DD400200041417F000402010204404040404061
:104DE400000102040020545454787F484444383865
:104DF40044444420384444487F3854545418087E6A
:104E04000901020C5252523E7F0804047800447D8A
:104E140040002040443D007F1028440000417F4072
:104E2400007C041804787C0804047838444444382A
:104E34007C14141408081414187C7C08040408480E
:104E440054545420043F4440203C4040207C1C20C7
:104E540040201C3C4030403C44281028440C505016
:104E6400503C4464544C4400000000000000000026
:104E7400000000000000000000000000000000002E
:104E8400000000000000000000000000000000001E
:104E9400000000000000000000000000000000000E
:104EA40000000000000000000000000000000000FE
:104EB40000000000000000000000000000000000EE
:104EC40000000000000000000000000000000000DE
:104ED40000000000000000000000000000000000CE
:104EE40000000000000000000000000000000000BE
:104EF40000000000000000000000000000000000AE
:104F0400000000000000000000000000000000009D
:104F1400000000000000000000000000000000008D
:104F2400000000000000000000000000000000007D
:104F3400000000000000000000000000000000006D
:104F4400000000000000000000000000000000005D
:104F5400000000000000000000000000000000004D
:104F6400000000000000000000000000000000003D
:104F7400000000000000000000000000000000002D
:104F8400000000000000000000000000000000001D
:104F9400000000000000000000000000000000000D
:104FA40000000000000000000000000000000000FD
:104FB40000000000000000000000000000000000ED
:104FC4007C1211127C7F494949317F494949367F16
:104FD40001010101603F213F607F49494941770850
:104FE4007F087722414949367F1008047F7E1009E3
:104FF400047E7F08142241403E01017F7F020C029F
:105004007F7F0808087F3E4141413E7F0101017FC7
:105014007F090909063E4141412201017F0101073F
:105024004848483F0E117F110E63140814633F2053
:10503400203F60070808087F7F407E407F3F203F75
:10504400207F017F4848307F4830007F007F4848F8
:1050540030224149493E7F083E413E462919097F95
:1050640020545454783C4A4A4A317C545428007C95
:1050740004040C00603C243C6038545454186C10F4
:105084007C106C00445454287C2010087C7C211231
:10509400097C7C10284400403804047C7C081008F7
:1050A4007C7C1010107C38444444387C0404047C18
:1050B4007C14141408384444440004047C04040C90
:1050C4005050503C08147C140844281028443C20B8
:1050D400203C600C1010107C7C407C407C3C203CCC
:1050E400207C047C5050207C5020007C007C50505C
:1050F4002028445454387C10384438485434147CA0
:1051040064617461424D453D00000000746D703D62
:10511400000000002020202020CCE5EDFE0000004F
:10512400EE203020EFF3EDEAF200000020203120E1
:10513400EFF3EDEAF200000020203220E2FBF5EE6E
:10514400E4000000F2E0E9ECE0F3F2FB20000000F0
:10515400CFF0E8E2E5F20000476F6F640000000062
:105164000000000000000000010203040607080913
:105174000000000001020304000201022E2E5C5311
:1051840072635C757362645F636F6E662E630000A6
:1051940043444320436F6E666967000043444320E1
:1051A400496E7465726661636500000053544D690D
:1051B40063726F656C656374726F6E69637300000C
:1051C40053544D3332205669727475616C20436FA9
:1051D4006D506F7274000000303030303030303039
:0851E4003030314100000000F1
:0451EC003101000885
:0451F0000D010008A5
:1051F4000100000010000000653400082934000894
:10520400B5330008000000002D33000819330008EE
:1052140085330008000000000000000000000000CA
:1052240061330008553300086D33000879330008F2
:1052340009024300020100C0320904000001020215
:1052440001000524001001052401000104240202C8
:105254000524060001070582030800100904010063
:10526400020A000000070501024000000705810250
:105274004000000009024300020100C0320904009A
:1052840000010202010005240010010524010001AF
:105294000424020205240600010705820308001005
:1052A40009040100020A00000007050102000200CF
:1052B40007058102000200000A0600020000004007
:1052C4000100000009074300020104C03209040080
:1052D400000102020100052400100105240100015F
:1052E400042402020524060001070582030800FFC6
:1052F40009040100020A0000000705010240000041
:1053040007058102400000006E6F7468696E6700D3
:10531400696E69740000000000A24A04E1470008B5
:10532400BD470008C1470008C5470008A54A000852
:10533400B14A0008BD4A0008D94A0008F54A0008E5
:10534400114B00082D4B000812010002020200401C
:10535400830440570002010203010000040309040E
:0400000508004B495B
:00000001FF
