:020000040800F2
:1000000000500020914B0008D5460008D946000852
:10001000DD460008E1460008E54600080000000053
:10002000000000000000000000000000E946000899
:10003000ED46000800000000F1460008F546000803
:10004000D94B0008D94B0008D94B0008D94B000800
:10005000D94B0008D94B0008D94B0008D94B0008F0
:10006000D94B0008D94B0008D94B0008D94B0008E0
:10007000D94B0008D94B0008D94B0008D94B0008D0
:10008000D94B0008D94B0008D94B0008D94B0008C0
:1000900005470008D94B0008D94B0008D94B000888
:1000A000D94B0008D94B0008D94B0008D94B0008A0
:1000B000D94B000811470008D94B0008D94B00085C
:1000C000D94B0008D94B0008D94B0008D94B000880
:1000D000D94B0008D94B0008D94B0008D94B000870
:1000E000D94B0008D94B0008D94B0008000000008C
:1000F0000000000000000000000000000000000000
:0C01000000000000000000005FF808F1A3
:10010C0010B5054C237833B9044B13B10448AFF345
:10011C0000800123237010BD7C0300200000000030
:10012C009854000808B5034B1BB103490348AFF3BF
:10013C00008008BD000000008003002098540008D7
:10014C00034613F8012B002AFBD1181A013870470B
:10015C0038B54FF47A730D490D4A09781268B3FB20
:10016C00F1F30546B2FBF3F000F0AEF808B90F2D31
:10017C0001D9012038BD0446024629464FF0FF3014
:10018C0000F052F8034B20461D6038BD00000020E3
:10019C00D002002004000020074A08B51368032091
:1001AC0043F01003136000F02DF80020FFF7D0FF90
:1001BC0004F0CCF9002008BD00200240034A044B97
:1001CC0011681B780B441360704700BFC8050020F2
:1001DC0000000020014B1868704700BFC8050020C4
:1001EC0038B50446FFF7F6FF631C054602D0044BF6
:1001FC001B781C44FFF7EEFF401B8442FAD838BD35
:10020C00000000204FF6FF01064A0002D36800F4FC
:10021C00E0600B4043F0BF6343F400330343D3600F
:10022C00704700BF00ED00E0184B70B4DC68C4F3FD
:10023C000224C4F10706042E04F1040328BF04268B
:10024C00062B17D90125033CA540013D2A4001236B
:10025C00B340013B1940A140002841EA02010CDBEC
:10026C00090100F16040C9B200F5614080F800134B
:10027C0070BC704700221446E9E7054B00F00F00F4
:10028C000901C9B20344197670BC704700ED00E057
:10029C00FCEC00E0012300F01F01034A40098B40F5
:1002AC0042F82030704700BF00E100E00122430912
:1002BC00044900F01F00203302FA00F041F823003B
:1002CC00704700BF00E100E00138B0F1807F0DD233
:1002DC0030B4F02500220721054B064C586084F8F9
:1002EC002350104630BC9A6019607047012070474B
:1002FC0010E000E000ED00E0044A042813680CBF95
:10030C0043F0040323F004031360704710E000E093
:10031C00704700BF08B5FFF7FBFF08BD2DE9F04F94
:10032C004FF0000885B043466FF01F06DFF8E0E1A0
:10033C00DFF8E0C1704F009005E00133102B06F19F
:10034C00040600F08B8001220C689A401440A242F3
:10035C00F3D14D68122D00F0A58000F28E80022D95
:10036C0000F0A78040F28380032D00F09F80112DB8
:10037C0002D1CA6802F10408FF2C72D8009A4FEA25
:10038C00830A914612680F2505FA0AFB22EA0B0232
:10039C0008FA0AFA42EA0A02C9F80020D1F804A0C5
:1003AC001AF0805FC9D0DEF8189023F0030249F0F0
:1003BC000109CEF81890DEF8189002F1804209F08D
:1003CC000109CDF80C9002F5803203F00309DDF839
:1003DC000CB04FEA8909D2F808B005FA09F52BEAF6
:1003EC00050001900098604579D0444DA84279D021
:1003FC00434D0098A8427AD0424D0098A8420CBFB9
:10040C004FF0030B4FF0040B0BFA09F901981AF497
:10041C00803F40EA090595603A6803F1010314BF77
:10042C002243A2433A607A681AF4003F14BF224375
:10043C00A2437A60BA681AF4801F14BF2243A24305
:10044C00BA60FA681AF4001F14BF144322EA0404B9
:10045C00102BFC6006F104067FF475AF05B0BDE807
:10046C00F08F0098B246426800F104098BE7A5B101
:10047C00012D81D1D1F80C807EE7234885420CD028
:10048C001BD92248854208D000F58030854204D023
:10049C00DFF884904D457FF46FAF8D68BDB94FF098
:1004AC00040869E7CA6802F10C0865E74FF0000818
:1004BC0062E7CA6802F108085EE7DFF860904D4514
:1004CC00EBD009F580394D457FF456AFE5E7009840
:1004DC00012D0CBF026142614FF008084CE74FF050
:1004EC00000993E74FF0010B0BFA09F98EE74FF077
:1004FC00020B0BFA09F989E700040140000C0140DA
:10050C0000100140001401400000211000003110C7
:10051C0000100240000801400000221000001110E1
:10052C008368194214BF01200020704702B90904E6
:10053C00016170472DE9F843074690469946C1F38F
:10054C0007468DB23C68012E1FD0A06935EA000326
:10055C0014BF0120002000B3606943051FD4B8F11B
:10056C00FF3FF0D0B8F1000F05D0FFF733FEA0EB42
:10057C0009008045E6D2002320223B6387F83C30FB
:10058C0087F83D200320BDE8F883626935EA020351
:10059C0014BF012000200028DED1BDE8F883002222
:1005AC006FF48066042520212368012043F4007336
:1005BC00236066613D6487F83C203A6387F83D1000
:1005CC00BDE8F8832DE9F041804617461D46C1F37E
:1005DC0007468CB2D8F8001009E0886934EA0003A9
:1005EC000CBF01200020B8420BD16B1C0CD1012E8A
:1005FC00F3D14B6934EA03030CBF01200020B8424D
:10060C00F3D00020BDE8F0812DB1FFF7E3FD069B90
:10061C00C01A8542DED200232022C8F8303088F878
:10062C003C3088F83D20032088F83E30BDE8F0814E
:10063C00F8B504460E4617462068436913F00403C8
:10064C0023D145696A050CD56FF4806504212022FD
:10065C00456121640120236384F83C3084F83D20FB
:10066C00F8BD731CE9D026B1FFF7B4FDC01B864260
:10067C00E2D220210022236C84F83C200B4323641B
:10068C000320226384F83D10F8BD0020F8BD00BFA4
:10069C0070B505460C46164608E05169C90617D4D4
:1006AC005CB1FFF797FD801B844206D32A6853691F
:1006BC0013F04003F1D0002070BD202200212B6CE0
:1006CC0085F83C1013432B64032085F83D2070BD46
:1006DC006FF01000202150612B6401202B6385F8F2
:1006EC003C3085F83D1070BDF8B504460E461746F3
:1006FC002068436913F0800323D145696A050CD542
:10070C006FF480650421202245612164012023635C
:10071C0084F83C3084F83D20F8BD731CE9D026B138
:10072C00FFF758FDC01B8642E2D220210022236C29
:10073C0084F83C200B4323640320226384F83D108F
:10074C00F8BD0020F8BD00BF2DE9F047056884B066
:10075C002C680D9E44F48074884691469A462C6011
:10076C000C9B009600224FF001110746FFF72AFF61
:10077C0018B1032004B0BDE8F0873A6808F0FE0316
:10078C0013611D4933460C9A3846FFF7D3FE20B14E
:10079C003B6C042BEDD10120ECE73B6803905969CD
:1007AC00324603919B690C9903933846039BFFF7E0
:1007BC009BFF88B9BAF1010F18D039684FEA192399
:1007CC000B6132460C993846FFF78EFF20B93A6818
:1007DC005FFA89F31361CDE73B6C042BC9D13A68FE
:1007EC000120136843F400731360C3E73B685FFA9E
:1007FC0089F21A61BEE700BF020001002DE9F04743
:10080C00046884B025680D9E45F4806525602568D4
:10081C00884645F4807591469A4625600C9B009657
:10082C0000224FF001110746FFF7CCFE18B1032050
:10083C0004B0BDE8F0873B685FFA88F808F0FE0268
:10084C001A612E4933460C9A3846FFF773FE20B1D5
:10085C003B6C042BEBD10120EAE73B680390596910
:10086C00324603919B690C9903933846039BFFF71F
:10087C003BFF60B9BAF1010F3B6812D15FFA89F204
:10088C001A6132460C993846FFF72EFFC0B13B6C0B
:10089C00042BCCD13A680120136843F40073136025
:1008AC00C6E74FEA19221A610C9932463846FFF70F
:1008BC001BFF0028EBD13A685FFA89F31361E0E77C
:1008CC003C68024621680C9B41F4807121603846DB
:1008DC004FF001110096FFF775FE0028A7D13A687A
:1008EC0048F00108C2F8108033460C9A0349384688
:1008FC00FFF720FE0028ABD19AE700BF02000100F1
:10090C0000287ED0F8B590F83D30044603F0FF0285
:10091C00002B61D02423226884F83D30136823F027
:10092C000103136001F058F96368374A934230D8D9
:10093C00364A90424ED95A00431EB3FBF2F30133B0
:10094C00C3F30B03042B38BF0423314AA2FB002052
:10095C002268800C411C5060116200214FF0200E67
:10096C00E069E768266A256906433D436069A76923
:10097C00D361384316609560D0601368084643F025
:10098C0001031360216484F83DE0216384F83E1078
:10099C00F8BD204A90421DD94FF496711C4D1E4A49
:1009AC00A5FB0065AD0C01FB05F1A2FB0121A668BE
:1009BC002268890901315560116296B9013803EB3F
:1009CC004303B0FBF3F30133C3F30B03BBB143F4A9
:1009DC000043C2E70120F8BD80F83C2003F006FE7E
:1009EC0098E703EB830303EB83030138B0FBF3F3CA
:1009FC000133C3F30B0313B143F44043ADE70123BD
:100A0C00ABE70120704700BFA08601007F841E0069
:100A1C0083DE1B43FF083D00D34D62102DE9F047E8
:100A2C00044682B099460E461746BDF82C80FFF757
:100A3C00D1FB94F83D30202B03D0022002B0BDE84E
:100A4C00F087054600901923012242492046FFF702
:100A5C00B9FD0028F1D194F83C30012BEDD00123E5
:100A6C00226884F83C301368D90703D4136843F028
:100A7C000103136040204FF0210E4FF0000A116863
:100A8C004B4621F400611160334A31460A9E84F8CA
:100A9C003DE084F83E00C4F840A0A4F82A80E2624D
:100AAC00608D66620C9E019500963A462085204624
:100ABC00FFF74AFE002839D1238DC3B12A460C9981
:100ACC002046FFF711FE002837D1616A20684B1CC5
:100ADC0063620B78268D0361638D721E013B9BB2A2
:100AEC006385476993B27A072385E6D593B92A467D
:100AFC000C992046FFF79CFDF8B920212268136859
:100B0C0043F40073136084F83D1084F83C0084F8BF
:100B1C003E0093E78B1C63624A78B31E0261628DC0
:100B2C009BB2013A92B223856285C6E7236C84F8A6
:100B3C003CA0042B0BD0032080E7236C042BFAD1B0
:100B4C0022680120136843F40073136076E70120D8
:100B5C0074E700BF020010000000FFFF2DE9F04712
:100B6C00044686B099460D461746BDF83C80FFF703
:100B7C0031FB94F83D30202B04D00225284606B0DA
:100B8C00BDE8F087064600901923012295492046BE
:100B9C00FFF718FD0028F0D194F83C30012BECD075
:100BAC000123216884F83C300B68D80703D40B6808
:100BBC0043F001030B604FF0220E40204FF0000A6F
:100BCC000A684B4622F400620A60874A29460E9D49
:100BDC0084F83DE084F83E00C4F840A0A4F82A80D4
:100BEC00E262608D6562109D019600953A46208503
:100BFC002046FFF703FE054638B1236C84F83CA071
:100C0C00042B00F0C7800325B8E7238D9BB923681C
:100C1C0002905A6902929A690292029A1A6842F4F4
:100C2C0000721A600023202284F83C3084F83D20A6
:100C3C0084F83E30A2E7012B226800F0AD80022B35
:100C4C0000F0BD80116841F480611160059051691C
:100C5C00059192690592059A644F002BE2D0032B03
:100C6C004BD8012B00F08880022B0096109B4FF084
:100C7C0000023946204667D0FFF7A4FC0028C2D1F9
:100C8C0021680B6823F480630B6072B62268636A78
:100C9C001269591C61621A70638D218D013B0139F7
:100CAC009BB200960246218563853946109B2046EF
:100CBC00FFF788FC0028A6D12368616A1A68481CD3
:100CCC0042F400721A601B6960620B70638D228D96
:100CDC00013B9BB2013A6385228562B62268636A46
:100CEC001269591C61621A70628D238D013A013BA5
:100CFC0092B29BB262852385AFE7324610992046AB
:100D0C00FFF7C6FC002841D12268636A1269591C9E
:100D1C0061621A70628D2168013A92B2238D6285EC
:100D2C004A69013B9BB25207238596D5636A0A69CF
:100D3C00591C61621A70238D628D013B013A9BB282
:100D4C0092B22385628588E7FFF73CFC00287FF48C
:100D5C005AAF72B62368616A1A68481C42F4007272
:100D6C001A601B6960620B70638D228D013B013A26
:100D7C009BB222856385B0E7324610992046FFF777
:100D8C0087FC18B92268636A1269D1E7236C202B9F
:100D9C003FF439AF0125F1E6136823F48063136047
:100DAC0072B6236803905A6903929A690392039A64
:100DBC001A6842F400721A6062B6238D4CE713680D
:100DCC0043F40063136072B6236804905A6904926A
:100DDC009A690492049A1A6822F480621A6062B6C4
:100DEC00238D39E7020010000000FFFF0400010012
:100DFC00002867D0F0B590F8293487B0054603F089
:100E0C00FF02002B59D003232E4685F8293428687D
:100E1C0001F08CF956F810EB6C4637460FCF0FC427
:100E2C003B682F1D236097E80E00704601F06CF9AB
:100E3C000021286801F084F900212B4608462A4637
:100E4C00012482F82810918601310F2982F829405B
:100E5C0082F82B009063D063106402F12002F0D171
:100E6C000022144683F828229A8601320F2A83F82E
:100E7C00294283F82B42C3F83842C3F83C42C3F8EA
:100E8C00404203F12003EDD1EE460FCED5F800C061
:100E9C00AEE80F0033686046CEF8003097E80E00DD
:100EAC0001F050F9012385F82440286885F829348D
:100EBC0001F078FD002007B0F0BD80F8282403F085
:100ECC00DBFCA0E70120704790F82824012A01D10F
:100EDC0002207047012110B5044680F8281403F055
:100EEC00FDFD206801F05CFD206801F015F9002083
:100EFC0084F8280410BD00BF90F82824012A01D1E1
:100F0C000220704710B50446012284F8241080F8A2
:100F1C002824006801F03EFD002084F8280410BD50
:100F2C0038B54CB2002C054619DB00EB411000F52E
:100F3C000A70E40F44700170C37095F82834026194
:100F4C00012B01D1022038BD0123014685F828343C
:100F5C00286801F011F9002085F8280438BD01F04B
:100F6C007F0100EB41102830E3E700BF4AB2002AB2
:100F7C0010B5044617DB00EB411303F50A73D20FCF
:100F8C005A70197094F82824012A01D1022010BD3E
:100F9C000122194684F82824206801F085FA0020E3
:100FAC0084F8280410BD01F07F0100EB41132833B5
:100FBC00E5E700BF70B5002601F07F014D01441933
:100FCC0005F50A7584F82812C4F83C224119C4F8B6
:100FDC0040320068C4F8446284F8296201F042FB94
:100FEC00304670BD01F00F0100EB4111B1F8440225
:100FFC00704700BFF8B50026012701F07F014D01B5
:10100C004419283584F82810E263411923640068D8
:10101C0084F82970666401F025FB3046F8BD00BFEA
:10102C002DE9F04F044683B0006801F0BDFC0204CA
:10103C0044D4206801F0B8FC460500F1F481206826
:10104C0001F0B2FC10F4804F206807D0B0F84430A7
:10105C0023F480431B041B0CA0F8443001F0A4FCC7
:10106C0010F4005F206807D0B0F8443023F400532C
:10107C001B041B0CA0F8443001F096FCC50400F1D5
:10108C00B481206801F090FC000500F18D8120688E
:10109C0001F08AFC820500F17A81206801F084FC61
:1010AC00C30508D52268B2F8443023F480731B04BE
:1010BC001B0CA2F8443003B0BDE8F08F002320686D
:1010CC00DFF89084DFF890A4DFF890B4ADF804302A
:1010DC00ADF80630B0F844309BB21F04ADF80430C4
:1010EC00A8D5BDF8045015F00F0552D1BDF8041069
:1010FC00038811F010019BB200F09280ADF806301D
:10110C00BDF806301B0500F12281BDF806301F0426
:10111C00E0D540F68F73028813400380B0F850304E
:10112C0094F828229BB203EBC20300EB4303D3F8E1
:10113C000C34C3F30903C4F84432002B40F0F081A3
:10114C000021204603F0BCFB2068D4F83812B0F81C
:10115C0050303E299BB200F5806503F1060340F246
:10116C00B981C1F34F12CE0604BF02F1FF3292B225
:10117C004BEA822292B245F8132003889BB203EA11
:10118C000A0383F4405343F4004343F08003038089
:10119C00A0E730F825309BB2ADF80630BDF806302C
:1011AC001A0467D4BDF806301B0693D530F82530E9
:1011BC006E019BB203EA080320F82530A11991F8BF
:1011CC003230002B40F0A180B0F8503091F828203C
:1011DC009BB203EBC203023300F5806252F813306A
:1011EC00C3F309034B64002B40F06C812644B0F828
:1011FC00503096F828109BB203EBC103023352F81F
:10120C001310F26BC1F30901336C0A447164F2637D
:10121C0096F8281020464BBB03F05AFB206859E780
:10122C0003EA08030380B0F8503094F828209BB2EE
:10123C0003EBC20300EB4300D0F80434E26BC3F3BE
:10124C0009031A446364E263204603F041FB94F8FB
:10125C0024306BB1236C5BB994F82420206842F0E5
:10126C008002A0F84C2084F8243033E7FFF7C2FE4C
:10127C0020682FE740F68F7330F825206E0113405D
:10128C0020F8253004EB060999F83232002B00F0D7
:10129C00E88099F8283230F8231000EB830211F41F
:1012AC00804FB0F8501089B201EBC30300EB43033D
:1012BC0000F01B81D3F80474C7F30907002F40F02A
:1012CC00458140F60F7311880B4043F4004343F003
:1012DC00C0031380A119D1F84402D1F83C22D1F8F3
:1012EC00403238443A44C1F84402C1F83C2223B19C
:1012FC00D1F83802874280F00C812644204696F8BB
:10130C00281203F0DDFA20684CE791F8282004EB52
:10131C00451530F8223013F0400FB0F850309BB226
:10132C0003EBC20300F0B580023300F5806252F883
:10133C001330C3F309036B64002B00F0B480CA8D27
:10134C00C96B01F037FB206800F58062ABE0B0F8A8
:10135C00503094F828229BB203EBC20300EB4303FA
:10136C00D3F80C34B4F82C22C3F30903C4F8443278
:10137C0004F22C4101F030FB40F68F7322682046BA
:10138C0011880B40138003F095FA2068A2E62268BE
:10139C002046B2F8443023F400731B041B0CA2F853
:1013AC00443003F09DFA78E62368B3F840201846E1
:1013BC0092B242F00802A3F84020B3F8442022F481
:1013CC0000621204120CA3F84420B3F8402092B22D
:1013DC0042F00402A3F8402001F0E6FAC1043FF504
:1013EC0056AE204603F08EFA51E622682046B2F83B
:1013FC00403023F004031B041B0CA2F84030B2F85D
:10140C00403023F008031B041B0CA2F8403003F0FF
:10141C0089FA2068B0F8443023F480531B041B0C69
:10142C00A0F844302EE622682046B2F8443023F46B
:10143C0080631B041B0CA2F8443003F055FA94F89B
:10144C002834012B3FF4FBAD0025012384F82450F4
:10145C0084F828342946206801F09CFA84F8285432
:10146C00EDE5B0F8503099F828229BB203EBC2039B
:10147C0000EB4303D3F80C74C7F30907002F3FF4B8
:10148C0029AF3B46B9F82C22D9F83C1201F0A4FA4A
:10149C0020E7063300F5806252F81330C3F30903DA
:1014AC006B64002B4AD140F60F73A11991F82810E8
:1014BC0030F821502B4043F4404343F0800320F894
:1014CC00213093E68A8DC96B01F074FA206800F51F
:1014DC0080628BE6C1F34F02C90744BF013292B25E
:1014EC00920292B245F8132047E6D3F80C74C7F376
:1014FC000907002F3FF4E5AE3B46B9F83022D9F886
:10150C003C1201F069FA99F82832226802EB830246
:10151C00D7E691F828122046FFF74CFD206841E6EB
:10152C00B4F82C22D4F83C1201F056FAD4F83C3220
:10153C00D4F844221344C4F83C3201E60A8EC96B39
:10154C0001F038FA206800F58062ACE73B46B9F848
:10155C002E22D4E70F8FFFFF8FBFFFFF0080FFFF0E
:10156C0038B54BB2002B0C46054618DB00EB41118D
:10157C0001F50A710122DB0F4B700C708A7095F823
:10158C002834934201D1022038BD85F828242868DC
:10159C0001F076F94CB1002085F8280438BD01F033
:1015AC007F0400EB44112831E4E705F22C41286854
:1015BC0001F0FEF9EFE700BF4AB2002A38B5054644
:1015CC0019DB00EB411303F50A730024D20F5A7098
:1015DC0019709C7095F82824012A01D1022038BD7D
:1015EC000122194685F82824286801F083F985F82A
:1015FC002844204638BD01F07F0100EB411328330D
:10160C00E3E700BF11F0800F0CD001F07F0100EB7D
:10161C004110283062B10122190CC3800181827201
:10162C000020704700EB411000F50A70002AF2D13F
:10163C0082728380002070472DE9F041036882B0EC
:10164C00DD07044630D5AD494A6802F00C02042A85
:10165C0000F0FA804A6802F00C02082A00F0F080D0
:10166C006368B3F5803F00F07481002B00F00481B7
:10167C00B3F5A02F00F0A981A04B1A6822F4803298
:10168C001A601A6822F480221A60FEF7A3FD9B4DA3
:10169C00064605E0FEF79EFD801B642800F21781CC
:1016AC002B689A03F6D523689F0728D5934A51686F
:1016BC0011F00C0F00F0A980516801F00C01082901
:1016CC0000F09F802369002B00F0328101228C4BAB
:1016DC008A4D1A60FEF77EFD064605E0FEF77AFDA0
:1016EC00801B022800F2F3802B689807F6D52B6834
:1016FC00626923F0F80343EAC2032B6023681A07DC
:10170C005DD45D073AD57D4BDA69D00000F1A68037
:10171C000125DA6942F08052DA61DB6903F080530B
:10172C000093009B774B1A68D10540F1BF80E368AA
:10173C00012B00F01481002B00F0CD80052B6F4B9A
:10174C001A6A00F04F8122F001021A621A6A22F022
:10175C0004021A62FEF73EFD684E804641F288375D
:10176C0006E0FEF737FDA0EB0800B84200F2AF80B0
:10177C00336A9B07F5D5002D40F0F780E369D3B1B0
:10178C005E4D6A6802F00C02082A45D0022B4FF01D
:10179C0000025D4B00F0EF801A60FEF71BFD2C463B
:1017AC00054605E0FEF716FD401B022800F28F806F
:1017BC0023689B01F6D4002002B0BDE8F081A36938
:1017CC00002B2DD00122514B4C4D1A60FEF702FD1F
:1017DC00064604E0FEF7FEFC801B022877D86B6AF5
:1017EC009B07F7D54A4B4B4A1B68A2FB03235B0AAA
:1017FC00019300BF019B5A1E0192002BF9D1236863
:10180C007FE75268D6033FF55DAF3C4A12689507F7
:10181C0026D52269012A23D0012002B0BDE8F0812F
:10182C003A4A364D1360FEF7D5FC064604E0FEF747
:10183C00D1FC801B02284AD86B6A9F07F7D4DEE7DD
:10184C004A68D0037FF50CAF2C4A126891037FF5E0
:10185C002BAF6268002A7FF427AFDDE7002561E734
:10186C00264960690A6822F0F80242EAC0020A605E
:10187C001A077FF546AFA2E703F1804303F5043363
:10188C001A681D4622F480321A601A6822F48022EB
:10189C001A60FEF79FFC064604E0FEF79BFC801BDB
:1018AC00642814D82B689B03F7D4FCE61A681E46F0
:1018BC0042F480721A60FEF78DFC07463368DA0535
:1018CC003FF535AFFEF786FCC01B6428F6D9032024
:1018DC0002B0BDE8F08103F1804303F504331A6ACA
:1018EC001E4622F001021A621A6A41F2883822F06E
:1018FC0004021A62FEF76EFC074612E0001002406A
:10190C0000004242007000406000424280044242AB
:10191C00D0020020D34D6210FEF75CFCC01B40458A
:10192C00D5D8336A9807F7D4002D3FF427AF1CE0C5
:10193C00344A354D1360FEF74DFC064604E0FEF7C5
:10194C0049FC801B0228C2D82B689907F7D423685E
:10195C00D5E62D4A136843F48033136095E62A4A82
:10196C00136A43F001031362F4E6274AD36923F0A8
:10197C008053D36102E71A60FEF72CFC064604E0A4
:10198C00FEF728FC801B0228A1D82B689901F7D4FC
:10199C00226AB2F5803F2DD001251B4B606A596835
:1019AC00024321F4741119480A435A6005601C461D
:1019BC00FEF710FC054604E0FEF70CFC401B022869
:1019CC0085D823689A01F7D5F5E603F18043A3F592
:1019DC003C331A6842F480221A601A6842F480324E
:1019EC001A6052E642F004021A621A6A42F00102CC
:1019FC001A62AFE66B68A16823F400330B436B608B
:101A0C00CAE700BF000042420010024060004242A0
:101A1C0070B50126022586B0154B0DF1180E0FCBB3
:101A2C000EE90F00134C8DF804608DF805506368B7
:101A3C0003F00C02082A0BD1C3F383427244DB037C
:101A4C0012F8102C07D40C4800FB02F006B070BD45
:101A5C000A4806B070BD63680848C3F3404300FBF6
:101A6C0002F0734413F8143CB0FBF3F006B070BDF5
:101A7C00B05400080010024000093D0000127A002A
:101A8C004E4A136803F007038B420BD2136823F002
:101A9C0007030B431360136803F00703994201D04B
:101AAC000120704703682DE9F0419A0706D5444C94
:101ABC008568626822F0F0022A436260DF070646FE
:101ACC000C4622D542683E4B012A1B6872D0022A72
:101ADC006AD0990729D53A4D41F288386B6823F0C2
:101AEC00030313436B60FEF775FB73680746012B0A
:101AFC0049D0022B05D151E0FEF76CFBC01B4045D1
:101B0C0055D86B6813F00C0FF6D12C4A136803F000
:101B1C0007039C420CD2136823F007032343136082
:101B2C00136803F007039C4202D00120BDE8F0814A
:101B3C0033685A0706D52249F0684A6822F4E062F5
:101B4C0002434A601B0707D51D4A3169536823F4C9
:101B5C00605343EAC1035360FFF75AFF184B19490E
:101B6C005B68194AC3F30313CB5C20FA03F3002020
:101B7C001360FEF7EDFA0020BDE8F081FEF72AFBBA
:101B8C00C01B404513D86B6803F00C03042BF5D134
:101B9C00BBE7FEF71FFBC01B404508D86B6803F082
:101BAC000C03082BF5D1B0E7980194D4BDE70320C2
:101BBC00BDE8F0819D038ED4B7E700BF0020024042
:101BCC0000100240E85B0008D0020020014B1868AE
:101BDC00704700BFD0020020044B05495B68054AE2
:101BEC00C3F30223CB5C1068D8407047001002404E
:101BFC00F85B0008D00200202DE9F0410446006893
:101C0C0082B0C30727D53B4BDA69D7003BD53A4B9B
:101C1C0000251A68D60544D5364A136A13F4407366
:101C2C000FD0616801F4407083420BD0012700266D
:101C3C00136A324923F440700F600E60D9071062AA
:101C4C0046D461682B4A136A23F440730B43136226
:101C5C00002D38D1206883070DD410F0100007D068
:101C6C000020244AE168536823F480030B4353603B
:101C7C0002B0BDE8F0811F4AA168536823F44043C9
:101C8C000B435360E9E7DA69012542F08052DA61CF
:101C9C00DB6903F080530193019B174B1A68D6053F
:101CAC00BAD41A681E4642F480721A60FEF792FA91
:101CBC0007463368D805AFD4FEF78CFAC01B6428EE
:101CCC00F7D90320D4E7D36923F08053D361C1E75C
:101CDC001646FEF77FFA41F28837804605E0FEF79C
:101CEC0079FAA0EB0800B842EBD8336A9A07F6D51C
:101CFC00A7E700BF001002400070004040044242C1
:101D0C0003680020DA6842F00102DA601A6842F0D7
:101D1C0001021A60704700BF90F83C30012B40D094
:101D2C000222F0B40125036880F83D209A680C6803
:101D3C0022F47F4222F07702402C80F83C509A60CB
:101D4C0073D018D9702C60D02DD9B4F5805F57D0D2
:101D5C00B4F5005F1CD18A684D68CC6899682A4339
:101D6C0042EA042221F47F410A439A609A6842F4C1
:101D7C0080429A600CE0102C32D038D9202C6CD0D8
:101D8C00302C05D19A6822F0700242F037029A602A
:101D9C000023F0BC012280F83C3080F83D2018462E
:101DAC00704702207047502C5ED0602CF0D11C6A1A
:101DBC004D6824F01004CE681C6299691A6A21F4EB
:101DCC00704122F0A00242EA051241EA0631996103
:101DDC001A629A6822F0700242F067029A60D7E7A2
:101DEC009A6822F0700242F017029A60D0E7002C39
:101DFC00CED19A6822F0700242F007029A60C7E7CF
:101E0C009A6822F007029A60C2E78A684D68CC682B
:101E1C0099682A4342EA042221F47F410A439A60DA
:101E2C009A6842F077029A60B2E71D6A1E6A4C68A3
:101E3C0026F00106CF681E629A6925F00A0122F08D
:101E4C00F00242EA071221439A6119629A6822F061
:101E5C00700242F047029A609AE79A6822F0700288
:101E6C0042F027029A6093E71D6A1E6A4C6826F0BE
:101E7C000106CF681E629A6925F00A0122F0F00271
:101E8C0042EA071221439A6119629A6822F07002A1
:101E9C0042F057029A607BE7704700BF704700BF63
:101EAC00704700BF704700BF704700BF036810B594
:101EBC001A690446910702D5DA68920762D41A6946
:101ECC00500702D5DA68510749D41A69120702D5AE
:101EDC00DA68100731D41A69D20602D5DA68D0064E
:101EEC0018D41A69D10702D5DA68D2076BD41A69EB
:101EFC00100602D5DA6811066DD41A69520602D59D
:101F0C00DA68500657D41A69910602D5DA68920637
:101F1C0049D410BD6FF0100108221961DB6920460D
:101F2C0013F4407F227761D1FFF7B8FF2046FFF70B
:101F3C00B9FF002223682277D3E76FF0080104224F
:101F4C001961DB6920469907227755D1FFF7A6FF67
:101F5C002046FFF7A7FF002223682277BBE76FF02C
:101F6C000401022219619B69204613F4407F2277F9
:101F7C003FD1FFF793FF2046FFF794FF0022236821
:101F8C002277A2E76FF00201012219619B690277A7
:101F9C009B0728D1FFF782FF2046FFF783FF002223
:101FAC00236822778BE76FF020022046BDE81040B3
:101FBC001A6100F0A5B86FF0400220461A61FFF7D5
:101FCC0073FF23689FE76FF0010220461A61FFF749
:101FDC0063FF23688BE76FF0800220461A6100F0E4
:101FEC0091F8236889E7FFF75BFFD8E7FFF758FF05
:101FFC009FE7FFF755FFC1E7FFF752FFABE700BFC5
:10200C001D4A0368904221D0B0F1804F30B414D0F7
:10201C00A2F59432904210D002F5806290420CD01E
:10202C004D6923F080032B438C680A6803600123FD
:10203C00C462826230BC436170474A6823F070030B
:10204C001343CA6823F440731343E9E74A6823F047
:10205C0070031343CA6823F4407313434A6923F093
:10206C008003134303608B68C3620B6883620B6944
:10207C000363012343617047002C0140B8B190F811
:10208C003D3010B503F0FF0204465BB1022320681B
:10209C0084F83D30211DFFF7B3FF0123002084F8A5
:1020AC003D3010BD80F83C2002F0DEFAEEE7012056
:1020BC00704700BF90F83C30012B1FD00246022025
:1020CC00F0B500250126136882F83D005C68D1F854
:1020DC0000E024F070045C6058684F6840EA0E0021
:1020EC0058609C68284624F080049C6099683943A9
:1020FC00996082F83D6082F83C50F0BD0220704738
:10210C00704700BF704700BF84B001A880E80E0084
:10211C0004B00020704700BF0246B0F840300020E9
:10212C009BB243F43F43A2F84030704744F2FF2384
:10213C000246B0F8401000200B40A2F84030704727
:10214C000020704784B070B4044601250020A4F828
:10215C004050A4F84000A4F84400A4F85000B4F88F
:10216C00405004AEADB245F43F45A4F8405086E86B
:10217C000E0070BC04B07047CB7870B4032B10D831
:10218C00DFE813F06701590104004B010A7830F8BD
:10219C00223023F4EC4323F070031B041B0C20F8B7
:1021AC00223040F60F740A7830F8223042F40045A1
:1021BC00234045F080052B4320F822308B7A002BEE
:1021CC0034D14B78002B00F0E080B0F850300D7813
:1021DC008A889BB203EBC503520800EB4303520001
:1021EC00C3F800240D7830F8253000EB85025B062F
:1021FC000BD530F825301C4044F4004444F0C004A6
:10220C0020F825400A7800EB82021388002070BC6D
:10221C0023F4E04323F040031B041B0C83F0200346
:10222C0043F4004343F080031380704740F60F6380
:10223C000A7800F5806530F82260334043F401439E
:10224C0043F0800320F82230B0F85020CE880B7871
:10225C0092B2760802EBC3027600B0F8503045F823
:10226C0012600A890E789BB20433520803EBC60342
:10227C00520045F813204B78002B49D10B7830F8DD
:10228C00235000EB83026D040BD530F8232014404F
:10229C0044F4404444F0800420F823400A7800EBD6
:1022AC00820213885E060BD540F60F731488234008
:1022BC0043F4004343F0C00313800A7800EB82021E
:1022CC0040F60F7448F2800513881C4044F4004417
:1022DC0044F0C00414800A7830F8223023F4804390
:1022EC0023F070031B041B0C83F440532B4320F886
:1022FC0022300A7830F8223023F4E04323F04003F4
:10230C001B041B0C2B4320F8223070BC00207047A0
:10231C000B7830F8235000EB83026D040BD530F8AA
:10232C002320144044F4404444F0800420F823401B
:10233C000A7800EB820213885B0600F1988040F665
:10234C000F7448F2800513881C4044F4404444F058
:10235C00800414800A7830F8223023F4E04323F010
:10236C0040031B041B0C2B4320F822300A7830F856
:10237C00223023F4804323F070031B041B0C2B43EB
:10238C0020F8223070BC00207047B0F850208C88A8
:10239C000B7892B20432640802EBC302640000F5BD
:1023AC008065B0F8503045F812400A690C789BB241
:1023BC0006333E2A03EBC40366D8C2F34F04D2079C
:1023CC0044BF0134A4B2A402A4B245F813400C7863
:1023DC0030F8243000EB84025E040DD540F60F7308
:1023EC0030F82420134043F4404343F0800320F89A
:1023FC0024300A7800EB82021388002070BC23F48E
:10240C00804323F070031B041B0C83F4405343F4F0
:10241C00004343F08003138070470A7830F8223071
:10242C0023F4EC4323F070031B041B0C43F4C06334
:10243C0020F82230B5E60A7830F8223023F4EC4349
:10244C0023F070031B041B0C43F4806320F8223030
:10245C00A7E60A7830F8223023F4EC4323F070031B
:10246C001B041B0C43F4007320F8223099E640F651
:10247C000F731488234043F4004343F0C0031380CC
:10248C000A7800EB82025AE7C2F34F14D60604BF57
:10249C0004F1FF3294B2034A42EA842292B245F824
:1024AC00132094E70080FFFF8B7A30B43BBB4B7852
:1024BC000C78002B00F0AE8030F8243000EB840256
:1024CC005B060DD540F60F7330F82420134043F40F
:1024DC00004343F0C00320F824300A7800EB82025A
:1024EC00138823F4E04323F040031B041B0C43F438
:1024FC00004343F08003002030BC138070474B78BE
:10250C00002B49D10B7830F8234000EB8302640494
:10251C000DD540F60F7230F82340224042F4404271
:10252C0042F0800220F823200A7800EB8202138804
:10253C005D060BD540F60F731488234043F400431B
:10254C0043F0C00313800A7800EB820240F60F744C
:10255C0048F2800513881C4044F4004444F0C00445
:10256C0014800A7830F8223023F4804323F070036F
:10257C001B041B0C2B4320F822300A7830F8223035
:10258C0023F4E04323F040031B041B0C2B4320F8E3
:10259C00223030BC002070470B7830F8234000EB21
:1025AC00830264040DD540F60F7230F823402240AC
:1025BC0042F4404242F0800220F823200A7800EBDB
:1025CC00820213885B063FD440F60F7448F28005F4
:1025DC0013881C4044F4404444F0800414800A786E
:1025EC0030F8223023F4E04323F040031B041B0C8F
:1025FC002B4320F822300A7830F8223023F4804321
:10260C0023F070031B041B0C2B4320F8223030BC2E
:10261C000020704730F8243000EB84025D040DD5A7
:10262C0040F60F7330F82420134043F4404343F03A
:10263C00800320F824300A7800EB8202138823F4FC
:10264C00804323F0700350E740F60F731488234047
:10265C0043F4004343F0C00313800A7800EB82027A
:10266C00B2E700BFF0B54C788B69012C0A6960D0D9
:10267C00934230D800251A468B7A8D6183BBB0F813
:10268C0050300C789BB206333E2A03EBC40300F5A2
:10269C00806540F28380C2F34F14D60604BF04F168
:1026AC00FF3294B2754A42EA842292B245F8132062
:1026BC000A7830F8223023F4804323F070031B0493
:1026CC001B0C83F4405343F4004343F0800320F885
:1026DC0022300020F0BD9B1A8B618B7A002BCED060
:1026EC00002CE5D1B0F850300C789BB202333E2A66
:1026FC0003EBC40300F5806540F29580C2F34F16DE
:10270C00D70604BF06F1FF34A6B25C4C44EA86241B
:10271C00A4B245F813404B78002B40F09280B0F8EF
:10272C0050300A789BB2063303EBC20345F81340D2
:10273C00BEE793423DD800241A468B7A8C61002B5D
:10274C003CD196B28F88013600F5806E76100EEB78
:10275C0047074C6906D034F8025B27F82350013345
:10276C009E42F8D1B0F850300C789BB2023303EB98
:10277C00C4034EF813200A7830F8223023F4E043D7
:10278C0023F040031B041B0C83F0300343F4004381
:10279C0043F0800320F822300020F0BDC2F34F0438
:1027AC00D20744BF0134A4B2A402A4B245F813402A
:1027BC007EE79B1A8B618B7A002BC2D00C7800F5CC
:1027CC00806630F8243013F0400FB0F850309BB2D4
:1027DC0003F1020303EBC40312BF46F81320CC88A9
:1027EC0046F8132092B218BF0C890132521006EB36
:1027FC00440618BF00234C6906D034F8025B26F857
:10280C00235001339342F8D14B783BBB40F60F7306
:10281C000A7830F82240234043F4004343F0C003CD
:10282C0020F82230A7E7C2F34F04D60744BF013487
:10283C00A4B2A402A4B245F813404B78002B3FF489
:10284C006EAF012B7FF434AFB0F850300C789BB2E4
:10285C00023303EBC40345F8132029E7012B8AD17B
:10286C0040F60F730A7830F82240234043F440437B
:10287C0043F0800320F822307DE700BF0080FFFF8B
:10288C000A782AB34B788BB930F8223023F4804382
:10289C0023F070031B041B0C83F4805343F400439C
:1028AC0043F0800320F822300020704730F82230AB
:1028BC0023F4E04323F040031B041B0C83F01003B0
:1028CC0043F4004343F0800320F82230002070478B
:1028DC00038823F4804323F040031B041B0C83F474
:1028EC00805383F0100343F4004343F080030380D0
:1028FC00002070474B7810B42BB30C7830F8243090
:10290C0000EB84025B060DD540F60F7330F82420E3
:10291C00134043F4004343F0C00320F824300A78FA
:10292C0000EB82021388002023F4E04323F04003E1
:10293C001B041B0C83F0300343F4004343F080036F
:10294C00138010BC70470B7830F8234000EB8302E7
:10295C0064040DD540F60F7230F82340224042F447
:10296C00404242F0800220F823200A7800EB8202D9
:10297C001388002023F4804323F070031B041B0CEA
:10298C0083F4405343F4004343F08003138010BCA2
:10299C00704700BF11B98023A0F84C30002070475D
:1029AC000020704700207047B0F8440080B2704798
:1029BC0000207047013300F580605B1000EB420291
:1029CC0009D030B4002431F8025B22F824500134D1
:1029DC00A342F8D130BC7047013300F580605B1026
:1029EC0000EB420205D052F8040B013B21F8020B1C
:1029FC00F9D17047D0F818321BB10020C3F814027B
:102A0C0070470220704700BFD0F81C3210B5D0F8C8
:102A1C0018425BB194F80002FF2807D09B6894F829
:102A2C00012221469847FF2384F80032002010BD74
:102A3C004323038000487047400000204323038059
:102A4C0000487047840000204323038000487047EF
:102A5C00D40000200A23038000487047C8000020DF
:102A6C0038B50446D0F8185202F02CF8D4F81832C5
:102A7C00C5F80C024BB1D4F81C3205F50371DB68B8
:102A8C00D5F804029847002038BD022038BD00BF9D
:102A9C00F8B50B780C4613F0600213D0202A0FD136
:102AAC00CE88054626B31B06D0F8187213D44B7883
:102ABC00324687F8003287F80162394600F024FC70
:102ACC000020F8BD4B780A2BFAD101220C4900F0FA
:102ADC0005FC0020F8BDD0F81C32324639469B6804
:102AEC0060789847E2883946284600F0F7FBE7E71C
:102AFC00D0F81C3232469B6848789847E0E700BF14
:102B0C009803002010B50446812101F077FF0121C4
:102B1C00204601F073FF2046822101F06FFFD4F8AC
:102B2C00183253B1D4F81C325B689847D4F81802A9
:102B3C0001F0D2FF0023C4F81832002010BD00BFF2
:102B4C00F8B5037C044673BB4FF400730222812159
:102B5C0001F044FF4FF4007302220121204601F0E2
:102B6C003DFF082303228221204601F037FF4FF45A
:102B7C00077001F0ADFF0546C4F8180230B300260B
:102B8C00D4F81C321B689847277CD5F80422C5F86A
:102B9C0014622046C5F818628FB14023012101F060
:102BAC0083FF3046F8BD40230222812101F016FF3D
:102BBC00402302220121204601F010FFD1E74FF4FF
:102BCC000073012101F070FF3846F8BD0120F8BDFB
:102BDC0019B1C0F81C12002070470220704700BFCA
:102BEC00D0F818320020C3F80812C3F8102270472E
:102BFC00D0F818320020C3F804127047D0F818220D
:102C0C008AB110B5D2F814420CB1012010BD0121CB
:102C1C00B2F81032C2F81412D2F80822812101F055
:102C2C0035FF204610BD0220704700BFD0F8182297
:102C3C008AB110B5047CD2F804222CB140230121B6
:102C4C0001F032FF002010BD4FF40073012101F0A0
:102C5C002BFF204610BD0220704700BF88B108B57D
:102C6C00D0F8143213B10023C0F8143209B1C0F8F3
:102C7C0010120123027080F8FC3101F057FE002085
:102C8C0008BD0220704700BF19B1C0F81412002013
:102C9C0070470220704700BF08B501F091FE00207C
:102CAC0008BD00BF08B5D0F8143213B11B689847A3
:102CBC0008B1022008BD08BD08B5D0F814325B6815
:102CCC009847002008BD00BF38B5044600F50275D2
:102CDC00284600F0C9FA012094F80812B4F80E2224
:102CEC0001F01F038342C4F8F401C4F8F82115D095
:102CFC000ED3022B06D001F08001204601F08CFE91
:102D0C00002038BD2946204600F046FA002038BD88
:102D1C002946204600F0D4F8002038BD294620462C
:102D2C0000F01CFA002038BD10B5044631B913462A
:102D3C00D0F8F421032A0CD0002010BDD0F81432A6
:102D4C009B69002BF8D090F8FC21032AF4D198470A
:102D5C00F2E7D0F80C11D0F8102191420CD8D0F831
:102D6C0014321B691BB190F8FC21032A0FD02046AA
:102D7C0000F0E2FA002010BD891A8A4228BF0A46E8
:102D8C00C0F80C1192B2194600F0CEFAD4E798476D
:102D9C00EDE700BF70B5044651B91346D0F8F421E5
:102DAC00022A15D094F80032012B0CD0002070BDF3
:102DBC00D0F814325B69002BF8D090F8FC21032A70
:102DCC00F4D19847F2E7002384F80032002070BD5C
:102DDC00C669026A964223D88369B3FBF2F502FBFB
:102DEC0015358DB99A420FD8D0F8F82193420BD2F1
:102DFC002A4600F081FAC4F8F8512B462A46294697
:102E0C00204601F051FECDE7D4F81432DB681BB13B
:102E1C0094F8FC21032A0BD0204600F099FAC1E764
:102E2C00B21A0D46C261194692B200F065FAE4E797
:102E3C0020469847F0E700BF38B5002240250446ED
:102E4C0011462B4601F0CAFD2B460022C4F8105146
:102E5C002046802101F0C2FD0122D4F818322562EF
:102E6C0084F8FC212BB1D4F8143221795B6820460C
:102E7C009847002038BD00BF01740020704700BF88
:102E8C000346042290F8FC11002083F8FD1183F80E
:102E9C00FC217047034690F8FD21002083F8FC21AB
:102EAC00704700BF90F8FC21032A01D00020704726
:102EBC0008B5D0F81432DB6903B19847002008BD7F
:102ECC0030B54B7883B00D460446092B0BD8DFE8A0
:102EDC0003F035480A580A05650A7B158B8813B927
:102EEC00CB88002B7DD08021204601F095FD20461B
:102EFC00002101F091FD002003B030BD8978964D82
:102F0C0001292970EFD890F8FC31022B00F0878052
:102F1C00032BE8D1002900F014814168012909D064
:102F2C00C9B2FFF7C9FE297820466160FFF7BAFEE7
:102F3C000228D8D0204600F0FFF9DCE7012290F8F7
:102F4C00FC310321023B9342CDD8D0F80432C2604D
:102F5C0003B1C160022204F10C01204600F0BEF95D
:102F6C00C9E790F8FC31023B012BBCD84B88012BF4
:102F7C00C1D10022D0F81432C0F804229B689847C3
:102F8C00D8E74B88012BB6D1D0F81422C0F8043204
:102F9C0093689847204600F0CFF9ACE74A88130AAB
:102FAC00013B062B9FD801A151F823F09B30000860
:102FBC00BD300008AB300008F32E0008F32E0008DB
:102FCC008530000845300008CA88012A8BD190F85A
:102FDC00FC31022B1CD0032B85D1011D00F07EF996
:102FEC0089E790F8FC318D78032B05F07F053FF4D1
:102FFC007AAF80F8FE51294601F03AFD204600F0E8
:10300C009BF9002D00F09080022384F8FC3172E7CC
:10301C000023014641F8083F00F060F96BE70029F6
:10302C0088D001210323416080F8FC31FFF73AFE80
:10303C0002287FF47FAF56E7037C002B7FF453AF5D
:10304C00D0F814320DF106001B6B98470723437020
:10305C00BDF80630002B3FF44EAFEA88002A3FF44F
:10306C004AAF934228BF134601461A462046ADF894
:10307C00063000F033F93EE7037C002B7FF433AFCE
:10308C00D0F814320DF106005B6B9847E0E7D0F8EE
:10309C0010320DF106011B68007C9847D8E7D2B2BC
:1030AC00052A3FF620AFDFE802F0271F170F372F56
:1030BC00037C002B3CD1D0F814320DF106009B6A36
:1030CC00984702234370C3E7D0F810320DF1060184
:1030DC001B69007C9847BBE7D0F810320DF1060154
:1030EC00DB68007C9847B3E7D0F810320DF106018D
:1030FC009B68007C9847ABE7D0F810320DF10601C5
:10310C005B68007C9847A3E7D0F810320DF10601FC
:10311C009B69007C98479BE7D0F810320DF10601B3
:10312C005B69007C984793E7012384F8FC31E2E665
:10313C00D0F814320DF10600DB6A98470223437075
:10314C0086E70223416080F8FC31FFF7B5FD20468D
:10315C0000F0F2F8CFE600BF9903002038B590F8E4
:10316C00FC310446032B03D10B790D46012B08D9F6
:10317C00802101F051FC2046002101F04DFC002083
:10318C0038BDD0F814329B689847EB88002BF6D1E9
:10319C00204600F0D1F8F2E770B50B788A8803F07E
:1031AC006003202B054657D04B780C46012BD6B22A
:1031BC0034D019D3032B15D190F8FC31022B31D01C
:1031CC00032B40D14B8823B9730602D0314601F052
:1031DC0023FCD5F8143221469B682846984728468C
:1031EC0000F0AAF8002070BD90F8FC31022B19D029
:1031FC00032B28D106F07F04130600EB0414314690
:10320C004CBF143404F5827401F022FC48BB2060DE
:10321C0021462846022200F061F8E3E790F8FC31E1
:10322C00022B05D17206DDD0314601F0F5FBD9E752
:10323C00032B08D14B88002BD4D17106CFD031464B
:10324C0001F0F8FBC5E7802101F0E6FB28460021E0
:10325C0001F0E2FB002070BDD0F814329B68984757
:10326C00C0E701232360D3E70B7803704B784370DE
:10327C00CA788B7803EB022343804A790B7903EBF2
:10328C0002238380CA798B7903EB0223C3807047B6
:10329C0000B3037830B4F3B10446002314F8015F93
:1032AC000133DBB2002DF9D15B000233DCB2032514
:1032BC0013800C704D7004785CB1022300255A1CED
:1032CC00D2B2CC548D5410F8014F0233DBB2002C27
:1032DC00F5D130BC704702242346E8E738B51346D5
:1032EC0002250A468361C361C0F8F451002101F044
:1032FC00CDFB002038BD00BF08B513460A4600219F
:10330C0001F0C4FB002008BD38B5134603250A465E
:10331C00C0F80831C0F80C31C0F8F451002101F0AC
:10332C00C3FB002038BD00BF08B513460A46002178
:10333C0001F0BAFB002008BD08B504220023C0F838
:10334C00F42119461A4601F0A1FB002008BD00BF6C
:10335C0008B505220023C0F8F42119461A4601F0DD
:10336C00A3FB002008BD00BF08B5044C00224FF49D
:10337C0080512046FDF7DAF8F8E700BF000C014059
:10338C00F0B54FF480330124002102254FF4801254
:10339C0095B00AA80A940E940B9312930C91119564
:1033AC001392FEF749F958BB03460F2790264FF4AA
:1033BC00E062214605A806950893059707960992A1
:1033CC00FEF75EFBE0B910224FF4800301A80192D6
:1033DC000493FEF711FC044690B9FEF7F7FB094B7A
:1033EC00A3FB00308009FCF76FFF0420FCF784FF7F
:1033FC00224621464FF0FF30FCF716FF15B0F0BD0A
:10340C00FFF7B2FFD34D621070B5044601250226BA
:10341C0084B0694616488DE830000396FCF77EFFB1
:10342C00214600221248FDF781F83046FCF7D8FE01
:10343C00002369460E48029500940193FCF76EFF39
:10344C000B4D21462846FDF76BF80128F9D0084DA5
:10345C0021462846FDF764F80028F9D0044D214692
:10346C002846FDF75DF80128F9D004B070BD00BF07
:10347C00000801402DE9F84F04464FF0000A1D20CA
:10348C00FCF714FF2046D346FFF7BEFFDFF88C8015
:10349C001F4D07274FF080464FF00109C6F824B0A6
:1034AC0021462846FDF73CF80028F9D0C6F80090D4
:1034BC0002E0736AC82B21D821462846FDF730F864
:1034CC000128F6D0C6F800A0736A09FA07F2322B6D
:1034DC0007F1FF3798F80030FFB28CBF13439343CA
:1034EC00FF2F88F80030D9D10A4B08F10108434569
:1034FC00CFD1BDE8F84F1D20FCF7CCBE0023064A07
:10350C0073623360138801331380BDE8F88F00BFFA
:10351C0000080140D105002090070020CC050020B8
:10352C00F8B500260B4F441E00F0F2FE3A78F3B2C9
:10353C00022A88BF03333B7000F0FEFE04F10E0537
:10354C0014F8010F00F090FEAC42F9D10136032EB5
:10355C00EAD1F8BD44070020092806D8DFE800F0BE
:10356C00050B0E1114171A1D20080F48FFF7D8BFB2
:10357C000E48FFF7D5BF0E48FFF7D2BF0D48FFF737
:10358C00CFBF0D48FFF7CCBF0C48FFF7C9BF0C48A5
:10359C00FFF7C6BF0B48FFF7C3BF0B48FFF7C0BF11
:1035AC000A48FFF7BDBF00BF18010020A40200208D
:1035BC0044010020700100209C010020C801002063
:1035CC00F4010020200200204C0200207802002090
:1035DC002DE9F04105461A4A012316881948AE42D6
:1035EC0014BF03260026A0FB0520DFF86480164FCD
:1035FC00C0F347103B7088F80060FFF7ADFF102256
:10360C00124888F80060A0FB0534E408A3B2A0FBC4
:10361C000310C00800EB8000A3EB4000C0B23A706E
:10362C00FFF79AFF232304EB8404A5EB44003B70C3
:10363C0088F80060C0B2BDE8F041FFF78DBF00BF55
:10364C00460700201F85EB51C6060020CDCCCCCC04
:10365C004407002038B500EB8000094C451D25447B
:10366C00044414F8010B00F0FFFDAC42F9D1054AFB
:10367C00137806331370BDE8384000F049BE00BF24
:10368C0058550008C606002038B564240F4B104D61
:10369C00A3FB00235B0904FB1304A4B203F1300069
:1036AC00A5FB0435C0B2ED08FFF7D4FF05F13000DF
:1036BC00C0B2FFF7CFFF05EB8500A4EB4000303024
:1036CC00C0B2BDE83840FFF7C5BF00BF1F85EB5146
:1036DC00CDCCCCCC70B51D4C4FF48070FFF7CAFE2E
:1036EC00A278E378217803EB022362789BB2184D21
:1036FC00184E184602EB012233802A80FFF768FF30
:10370C002888FFF765FF4FF47A70FCF769FD124BC0
:10371C001B7803B170BD4FF40070FFF7ABFEA278BD
:10372C00E378217803EB022362789BB2184602EB14
:10373C00012233802A80FFF74BFF2888FFF748FFD0
:10374C00BDE870404FF47A70FCF74ABDCC05002000
:10375C00C406002046070020D105002010B500F05B
:10376C000FFE20201C4CFFF775FF14F8010F0028EA
:10377C00F9D1012100F0F4FDEE20184CFFF76AFF9F
:10378C0014F8010F0028F9D1022100F0E9FD2020E6
:10379C00134CFFF75FFF14F8010F0028F9D1032138
:1037AC0000F0DEFD20200F4CFFF754FF14F8010F42
:1037BC000028F9D1042100F0D3FDF2200A4CFFF7C8
:1037CC0049FF14F8010F0028F9D1084BBDE810404F
:1037DC001888FFF759BF00BFA45B0008B05B000856
:1037EC00BC5B0008C85B0008D45B00089007002095
:1037FC00F0B503234FF48037244D254E85B0029746
:10380C000193009530460123FA22EC21FDF7A6F92D
:10381C0069782B78AC78090201EB03410C441D4B01
:10382C00221105201A60FCF7DBFC06230297009599
:10383C000193304601238822EC21FDF78FF96B7838
:10384C0029786F7901EB032189B2C1EB242202FBA9
:10385C0002F22B79A878EE7803EB07252DB213131F
:10386C00490000EB0622C1EBE41103FB05F312B295
:10387C0001FB02F19B1303EBE12303EB8300064AEC
:10388C0080300012136005B0F0BD00BFC8060020E8
:10389C00D4050020880700208C0700202DE9F04F6C
:1038AC0001274FF4803A02264A4DDFF8349187B055
:1038BC0001963B46CDF808A048460095FD22EC2128
:1038CC00FDF74CF995F8008095F801B0424C0BEBE4
:1038DC00082B0197CDF808A000953B46C4F800B022
:1038EC004846A122EC21FDF739F92C788DE86004CB
:1038FC003B464846E122EC210594FDF72FF96B7805
:10390C002C788DE8A00404EB032448463B46E322C4
:10391C00EC21FDF723F98DE860043B464846E42290
:10392C00EC212E78FDF71AF995F8018095F800E056
:10393C008DE8A0043B464846E622EC2108F00F082F
:10394C0008EB0E18FDF70AF92A7895F801E08DE8D6
:10395C00A0043B4648461701EC21E72207EB1E1753
:10396C00FDF7FCF81D4B95F900201B684FEA085831
:10397C00A3F5963303FB06F003FB02F6C012B61256
:10398C0000F5004000FB06F0801224B2C8EB8B3827
:10399C0000F5001003FB178704FB00F007F58047C8
:1039AC0000F50050FF13801300FB07F0C31303FB5B
:1039BC0003F3059CDB1104FB03F3A0EB231020EABB
:1039CC00E070B0F1C85FA8BF4FF0C850001307B04B
:1039DC00BDE8F08FC8060020800600208C07002070
:1039EC00D405002030B5052085B0FCF7F9FB4FF469
:1039FC00803201234025204C029201930094F52241
:103A0C00EC211E482570FDF709F878B30520FCF76A
:103A1C00E7FB01254FF480328DE8300002922B46F3
:103A2C00F222EC2115482570FCF7F8FFC8B10520EF
:103A3C00FCF7D6FB4FF4803201232325029200942D
:103A4C000193F422EC210D482570FCF7E7FF08B137
:103A5C0005B030BD33210A4805B0BDE8304000F058
:103A6C00F1BE1D21074800F0EDFEE0E719210648E4
:103A7C0000F0E8FECAE700BFC8060020D40500200D
:103A8C00FC540008DC540008C054000810B5FFF7C3
:103A9C00AFFE114C02461149204601F0BDF805203D
:103AAC00FCF79EFB2046FCF74BFB81B2204600F056
:103ABC00C9FEFFF7F3FE0A490246204601F0ACF8B6
:103ACC000520FCF78DFB2046FCF73AFB81B2204623
:103ADC00BDE8104000F0B6BEE006002030550008EE
:103AEC004455000810B5044684B00520FCF778FB5B
:103AFC004FF480320123029200940193002278212A
:103B0C000A48FCF78BFF08B104B010BD22780849B5
:103B1C00084801F081F80748FCF712FB81B2054810
:103B2C0004B0BDE8104000F08DBE00BF2806002098
:103B3C00945B0008E0060020A82330B5C14C85B08A
:103B4C0020462370FFF7CEFF3F2320462370FFF75C
:103B5C00C9FF0520FCF744FB4FF480320123D32529
:103B6C0002920094019300227821B7482570FCF74B
:103B7C0055FF002800F0CC810520FCF731FB002517
:103B8C004FF480310123029100942A46019378214D
:103B9C00AD482570FCF742FF002800F0B3810520EA
:103BAC00FCF71EFB4FF48032012340250292009457
:103BBC00019300227821A4482570FCF72FFF0028E0
:103BCC0000F09A810520FCF70BFB4FF480320123A7
:103BDC00A025029200940193002278219A48257026
:103BEC00FCF71CFF002800F081810520FCF7F8FA97
:103BFC004FF480320123A1250292009401930022FC
:103C0C00782191482570FCF709FF002800F06881A5
:103C1C000520FCF7E5FA4FF480320123C02502920F
:103C2C00009401930022782187482570FCF7F6FE5A
:103C3C00002800F04F810520FCF7D2FA4FF48032B7
:103C4C000123C825029200940193002278217E481A
:103C5C002570FCF7E3FE002800F036810520FCF708
:103C6C00BFFA4FF480320123DA25029200940193BB
:103C7C000022782174482570FCF7D0FE002800F053
:103C8C001D810520FCF7ACFA4FF48032012302258C
:103C9C00029200940193002278216B482570FCF766
:103CAC00BDFE002800F004810520FCF799FA4FF4C2
:103CBC008032012381250292009401930022782105
:103CCC0061482570FCF7AAFE002800F0EB80052067
:103CDC00FCF786FA4FF4803201237F250292009480
:103CEC0001930022782158482570FCF797FE002894
:103CFC0000F0D2800520FCF773FA4FF480320123D8
:103D0C00A425029200940193002278214E4825703C
:103D1C00FCF784FE002800F0B9800520FCF760FA5F
:103D2C004FF480320123A6250292009401930022C5
:103D3C00782145482570FCF771FE002800F0A08022
:103D4C000520FCF74DFA4FF480320123D525029261
:103D5C0000940193002278213B482570FCF75EFE0D
:103D6C00002800F087800520FCF73AFA4FF48032E7
:103D7C00012380250292009401930022782132487D
:103D8C002570FCF74BFE00286ED00520FCF728FAB6
:103D9C004FF4803201238D2502920094019300226E
:103DAC00782129482570FCF739FE002856D00520CB
:103DBC00FCF716FA4FF4803201231425029200947A
:103DCC0001930022782120482570FCF727FE00285B
:103DDC0031D00520FCF704FA4FF480320123AF25D3
:103DEC000292009401930022782117482570FCF769
:103DFC0015FED0B10520FCF7F3F94FF48032012306
:103E0C00A525029200940193002278210E4825707A
:103E1C00FCF704FE08B105B030BD0C490C4889B262
:103E2C0005B0BDE8304000F00DBD0849094889B225
:103E3C0000F008FDDEE70549074889B200F002FDF5
:103E4C00C7E700BFC8060020280600204D01000867
:103E5C00845B0008745B0008645B00082F493048E1
:103E6C0089B200F0EFFCA2E72C492E4889B200F091
:103E7C00E9FC8AE729492C4889B200F0E3FC72E797
:103E8C0026492A4889B200F0DDFC59E72349284825
:103E9C0089B200F0D7FC40E72049264889B200F0EF
:103EAC00D1FC27E71D49244889B200F0CBFC0EE772
:103EBC001A49224889B200F0C5FCF5E6174920489A
:103ECC0089B200F0BFFCDCE614491E4889B200F050
:103EDC00B9FCC3E611491C4889B200F0B3FCAAE650
:103EEC000E491A4889B200F0ADFC91E60B4918480E
:103EFC0089B200F0A7FC78E60849164889B200F0B0
:103F0C00A1FC5FE60549144889B200F09BFC46E62B
:103F1C000D21124800F096FC2EE600BF4D01000862
:103F2C00545B0008445B0008345B0008185B000815
:103F3C00085B0008F85A0008E85A0008D85A00082C
:103F4C00C85A0008B85A0008A85A0008985A00081D
:103F5C00885A0008785A0008685A0008585A00080D
:103F6C0080B590B0FCF718F9FFF70AFA844B0022E1
:103F7C009869FB2140F0200098619C69814804F00D
:103F8C0020040194019C9D69012445F004059D6168
:103F9C009E69154606F004060296029E9F6902264B
:103FAC0047F008079F614FF480579B6903F00803A3
:103FBC000393039BFCF7BAFA224604217148FCF7E1
:103FCC00B5FA224639467048FCF7B0FAFF230CA923
:103FDC006C480C930D940E950F96FCF79FF90CA959
:103FEC0069480D940E950F960C97FCF797F94FF4C2
:103FFC0000530CA964480E940C930D95FCF78EF9A4
:10400C004FF440730CA95F480E940C930D95FCF77C
:10401C0085F94FF080410B224FF6FF735B4C204625
:10402C00A5602561A56184E80600E360FEF726F82B
:10403C00002840F0A2800CA920460C97FDF76CFEDE
:10404C000346002840F09980204606A90693079362
:10405C00FEF730F80346002840F08F8042F6DF650B
:10406C001D224B4C4B4920466560A3602361A36124
:10407C002160E260FEF702F800287ED110A941F819
:10408C00207D2046FDF748FE0346002875D12022EE
:10409C0004A9204605930492FEF70CF80546002867
:1040AC006BD14FF4804700F08BFB3B4B3B4A3C49B8
:1040BC00184683E806001F619D60DD605D619D61AF
:1040CC00DD611D62FCF71CFC0246002855D1354B06
:1040DC00354D364918469A60DA601F615A619A610B
:1040EC00DA611A621D605960FCF70AFC002844D1A1
:1040FC0000F0C8F82046FDF703FE00F041F9182047
:10410C00314600F02DF9CF20294CFFF7A3FA14F813
:10411C00010F0028F9D1C820FCF762F800F068F90B
:10412C004FF46170FCF75CF841F28830FCF758F8FA
:10413C00FFF758FCFFF700FD40F6C410FCF750F8F1
:10414C001C4C114DFFF7A2FC2378012B0DD011D381
:10415C00022BF7D000224FF480512846FCF7E6F9E9
:10416C00FFF794FC2378012BF1D14FF4FA70FCF794
:10417C0037F8E7E7FFF7AEFAE4E7FFF7F5F800BF2B
:10418C000010024000080140000C014048070020CC
:10419C008406002000040040D4050020801A06008C
:1041AC00005400402806002000580040A086010062
:1041BC00E05B0008D105002008B5044C00224FF448
:1041CC0080512046FCF7B2F9F8E700BF000C014023
:1041DC0010B5094C002220460821FCF7A7F920460F
:1041EC0001221021FCF7A2F92046BDE81040012263
:1041FC000821FCF79BB900BF0008014010B5094C21
:10420C00002220460821FCF791F9204600221021BB
:10421C00FCF78CF92046BDE8104001220821FCF780
:10422C0085B900BF0008014038B500220546402181
:10423C000C48FCF77BF9072404E0FFF7C9FF14F1E5
:10424C00FF3408D345FA04F3DB07F6D4FFF7D6FFA7
:10425C0014F1FF34F6D2BDE8384001224021014868
:10426C00FCF764B90008014010B50446012204486B
:10427C002021FCF75BF92046BDE81040FFF7D4BFC6
:10428C000008014010B5214C012220464021FCF7CA
:10429C004DF9204600228021FCF748F920460122E6
:1042AC008021FCF743F9204600222021FCF73EF93F
:1042BC002120FFF7B9FF204600222021FCF736F918
:1042CC001320FFF7B1FF204600222021FCF72EF926
:1042DC000420FFF7A9FF204600222021FCF726F935
:1042EC00C020FFF7A1FF204600222021FCF71EF979
:1042FC002020FFF799FF204600222021FCF716F919
:10430C00BDE810400C20FFF78FBF00BF0008014034
:10431C0010B5074B07481C78002284F0800420213C
:10432C00FCF704F92046BDE81040FFF77DBF00BF45
:10433C00C60600200008014010B5074B07481C7842
:10434C0000224034E4B22021FCF7F0F82046BDE80E
:10435C001040FFF769BF00BF440700200008014070
:10436C0010B50C46044B1870FFF7D2FF034B1C70B2
:10437C00BDE81040FFF7E0BFC60600204407002050
:10438C00F8B50025174F184E3D70FC24FFF7C0FF01
:10439C003570FFF7D1FF05F1804505F58435012215
:1043AC0020212846FCF7C2F80020FFF73DFF631ED2
:1043BC0013F0FF04F3D103233C703370FC24FFF79C
:1043CC00A7FFFFF7B9FF094D012220212846FCF772
:1043DC00ADF80020FFF728FF631E13F0FF04F3D1A4
:1043EC00F8BD00BFC60600204407002000080140AD
:1043FC00F8B500220323524D524E2A7033705424C8
:10440C00FFF786FFFFF798FF4F4F01222021384618
:10441C00FCF78CF80120FFF707FF631E13F0FF0475
:10442C00F3D105232C7033705424FFF771FFFFF781
:10443C0083FF454F012220213846FCF777F8802076
:10444C00FFF7F2FE631E13F0FF04F3D12C703470EF
:10445C00FFF75EFF5424FFF76FFF3B4F0122202133
:10446C003846FCF763F80120FFF7DEFE631E13F0FD
:10447C00FF04F3D102232C7033705424FFF748FF50
:10448C00FFF75AFF304F012220213846FCF74EF837
:10449C008020FFF7C9FE631E13F0FF04F3D1224600
:1044AC0020212948FCF742F82220FFF7BDFE062701
:1044BC002C703470FFF72CFFFFF73EFF224C0122CB
:1044CC0020212046FCF732F8FF20FFF7ADFE7B1EC3
:1044DC0013F0FF07F3D1532337702B700624FFF72B
:1044EC0017FFFFF729FF184F012220213846FCF750
:1044FC001DF8FF20FFF798FE631E13F0FF04F3D1A5
:10450C00402334702B700624FFF702FFFFF714FFD3
:10451C000D4D012220212846FCF708F8FF20FFF75B
:10452C0083FE621E12F0FF04F3D1224606482021BE
:10453C00FBF7FCFFBDE8F8402020FFF775BE00BF7D
:10454C00C60600204407002000080140254B00B59A
:10455C009A6983B042F001029A619A69032002F0D1
:10456C0001020092009ADA6942F08052DA61DB694A
:10457C0003F080530193019BFBF744FE00226FF084
:10458C000B001146FBF750FE00226FF00A0011469B
:10459C00FBF74AFE00226FF009001146FBF744FEC0
:1045AC0000226FF004001146FBF73EFE00226FF074
:1045BC0003001146FBF738FE00226FF00100114694
:1045CC00FBF732FE00224FF0FF301146FBF72CFEBA
:1045DC00054A536823F0E06343F00073536003B063
:1045EC005DF804FB001002400000014010B50368A8
:1045FC00194A86B093421AD0184A934201D006B099
:10460C0010BD122203234FF4406402A914480392F4
:10461C0005930294FBF782FE124BDA6942F4800296
:10462C00DA61DB6903F480030193019BE7E7122253
:10463C000323C02402A90A48039205930294FBF7B2
:10464C006DFE084BDA6942F40012DA61DB6903F49F
:10465C0000130093009BD2E7005400400058004028
:10466C00000C01400010024010B5036882B0B3F199
:10467C00804F04D0124A93420ED002B010BD03F505
:10468C000433DA6942F00102DA61DB6903F00103F9
:10469C000093009B02B010BD00220A4B1146DC694E
:1046AC001D2044F00204DC61DB6903F0020301937A
:1046BC00019BFBF7B9FD1D20FBF7ECFDDDE700BF0F
:1046CC000004004000100240704700BFFEE700BF2E
:1046DC00FEE700BFFEE700BFFEE700BF704700BF6C
:1046EC00704700BF704700BF08B5FBF767FDBDE81A
:1046FC000840FBF70FBE00BF0148FCF791BC00BFA0
:10470C00B819002010B51548FDF7D0FB4FF4005137
:10471C001348FBF705FFA0B9124C2378B3B9124923
:10472C000A78A2B1012A09D1104A1078022805D1C1
:10473C000B701370FFF724FEFFF75AFE0123237052
:10474C0010BD084B1A780AB100221A7010BD012353
:10475C000B70FFF703F80123237010BD84060020B3
:10476C00000C01407C060020D1050020DC06002056
:10477C0030B44FF41F054FF000640E4B0E4A19680D
:10478C000E4841F00101196059680A405A601A68D4
:10479C0022F0847222F480321A601A6822F4802289
:1047AC001A605A6822F4FE025A609D60846030BC24
:1047BC00704700BF001002400000FFF800ED00E061
:1047CC0010B5094C002220460849FEF747FA20464E
:1047DC000749FEF759FA20460649FEF7F9F9204633
:1047EC00BDE81040FEF758BA94070020E402002000
:1047FC0008000020D40200200020704700207047E1
:10480C0010B5054C01462046FEF7F2F92046FEF79E
:10481C000DFA002010BD00BF9407002010B5064C07
:10482C00002220460549FEF7DBF920460449FEF735
:10483C00DFF9002010BD00BF94070020B811002044
:10484C00B80900200B4B10B5D3F81842D4F8143229
:10485C00002BFBD1D4F814320BB1012010BD0A4649
:10486C0001460448FEF7BCF9BDE810400148FEF7CC
:10487C00C5B900BF9407002002680D4B9A4200D0C6
:10488C007047002203F5DA3310B5DC6982B044F4CA
:10489C000004DC61DB69114603F40003019314206E
:1048AC00019BFBF7C1FC1420FBF7F4FC02B010BD1C
:1048BC00005C004000F22C41D0F85C04FEF704BA16
:1048CC0000EB4113D3F83C22D0F85C04FEF72CBA71
:1048DC0000EB4113DA6BD0F85C04FEF75BBA00BF57
:1048EC00D0F85C04FEF7DEBA10B504460121D0F80E
:1048FC005C04FEF7C1FAD4F85C04BDE81040FEF786
:10490C009BBA00BF10B50446D0F85C04FEF7B8FAA9
:10491C00A36923B1024A136943F00603136110BD66
:10492C0000ED00E0D0F85C04FEF7B4BAF8B5002254
:10493C000826022503211F4B1F4FC3F85C040446B5
:10494C00C0F8203218461F605E609D60D9609A6185
:10495C00DA611A62FCF74CFA20B140F22B111748BD
:10496C00FFF72AFC002218231146D4F82002FCF78A
:10497C0049FE582300228021D4F82002FCF742FE85
:10498C00C02300228121D4F82002FCF73BFE4FF417
:10499C00887300220121D4F82002FCF733FED4F8EE
:1049AC0020024FF4807300228221FCF72BFE0020A2
:1049BC00F8BD00BFB8190020005C0040045C000882
:1049CC0008B5D0F82002FCF77FFA03289ABF024BF7
:1049DC00185C022008BD00BF005C000810B51C4626
:1049EC00D0F8200213462246FCF79AFA03289ABF05
:1049FC00014B185C022010BD005C000808B5D0F813
:104A0C002002FCF7B3FA03289ABF024B185C022071
:104A1C0008BD00BF005C000808B5D0F82002FCF708
:104A2C009FFD03289ABF024B185C022008BD00BFF3
:104A3C00005C000808B5D0F82002FCF7BDFD032887
:104A4C009ABF024B185C022008BD00BF005C000836
:104A5C000A06D0F8203204D403EB411393F82A024F
:104A6C00704701F07F0103EB411393F82A00704764
:104A7C0008B5D0F82002FCF73FFA03289ABF024B86
:104A8C00185C022008BD00BF005C000808B5D0F817
:104A9C002002FCF7AFFA03289ABF024B185C0220E5
:104AAC0008BD00BF005C000808B5D0F82002FCF778
:104ABC0081FA03289ABF024B185C022008BD00BF84
:104ACC00005C000808B5D0F82002FCF78BFA08BD92
:104ADC00004870479C030020704700BF704700BF20
:104AEC00122301480B807047000300200423014867
:104AFC000B8070471403002010B5044C0A46044880
:104B0C002146FEF7C5FB204610BD00BF181E002035
:104B1C00345C000810B5044C0A4604482146FEF7E4
:104B2C00B7FB204610BD00BF181E0020485C0008D3
:104B3C0010B5044C0A4604482146FEF7A9FB204652
:104B4C0010BD00BF181E0020605C000810B5044C9E
:104B5C000A4604482146FEF79BFB204610BD00BFC9
:104B6C00181E0020185C000810B5044C0A460448B6
:104B7C002146FEF78DFB204610BD00BF181E0020FD
:104B8C00245C0008002103E00B4B5B5843500431BC
:104B9C000A480B4B42189A42F6D30A4A02E0002309
:104BAC0042F8043B084B9A42F9D3FFF7E1FD00F0C1
:104BBC000FF8FFF7D5F97047AC5C00080000002037
:104BCC007C0300207C0300201C200020FEE700005A
:104BDC0070B500250C4E0D4CA41BA410A54209D198
:104BEC0000F054FC00250A4E0A4CA41BA410A5424C
:104BFC0005D170BD56F8253098470135EEE756F8CB
:104C0C00253098470135F2E7A45C0008A45C000845
:104C1C00A45C0008A85C00080EB44FF4027100B547
:104C2C009CB0ADF814106FF00041049107914FF651
:104C3C00FF711DAB02900690084853F8042BADF899
:104C4C001610006802A9019300F066F80022029B7E
:104C5C001A701CB05DF804EB03B070471803002009
:104C6C002DE9F0478E6882469E420C469146984646
:104C7C0035D88A8912F4906F31D0022325680969DE
:104C8C006F1A656905EB450595FBF3F508F1010312
:104C9C003B449D4238BF1D46530531D5294600F093
:104CAC0047FB064650B90C23CAF80030A3894FF0D5
:104CBC00FF3043F04003A381BDE8F0873A462169F9
:104CCC0000F0C4FAA38923F4906343F08003A3811A
:104CDC0026613E44266046466561ED1BA56046454F
:104CEC0028BF464649463246206800F0BAFAA36807
:104CFC0000209B1BA36023681E442660BDE8F08740
:104D0C002A4600F073FB06460028E1D12169504683
:104D1C0000F0C2FAC7E700002DE9F04F9DB00393F5
:104D2C008B8980461C060D4616460FD50B696BB950
:104D3C00402100F0FDFA2860286128B90C23C8F83E
:104D4C0000304FF0FF30C4E040236B610023099327
:104D5C0020238DF8293030234FF0010B8DF82A30A9
:104D6C0037463C4614F8013B002B3CD1B7EB060A06
:104D7C000BD05346324629464046FFF771FF0130AF
:104D8C0000F0A280099B534409933B78002B00F060
:104D9C009B8000234FF0FF320493079305920693F8
:104DAC008DF853301A9305222178504800F040FAC0
:104DBC00671C049BD8B9D90644BF20228DF8532018
:104DCC001A0744BF2B228DF8532022782A2A16D09A
:104DDC0000210A20079A27463B780134303B092BE7
:104DEC0050D9C9B111E0252BC0D02746B9E73F4AAD
:104DFC003C46801A0BFA00F018430490D3E7039A50
:104E0C00111D12680391002A01DB079204E0524243
:104E1C0043F00203079204933B782E2B0DD17B7841
:104E2C00791C2A2B32D1039B02371A1D1B68039263
:104E3C00002BB8BF4FF0FF3305932D4C032239786C
:104E4C00204600F0F5F938B14023001B03FA00F0BE
:104E5C00049B0137034304933978062225487E1CB2
:104E6C008DF8281000F0E4F9002835D0224BFBB95E
:104E7C00039B073323F0070308330393099B4B442D
:104E8C0009936DE700FB02320121A4E700230A24F9
:104E9C00184605930F463A780131303A092A03D95E
:104EAC00002BCAD00590C8E704FB00200123F1E7D2
:104EBC0003AB00932A46114B04A94046AFF3008084
:104ECC00B0F1FF3F8146D9D1AB895B063FF539AFD5
:104EDC0009981DB0BDE8F08F03AB00932A46074B31
:104EEC0004A9404600F084F8EAE700BF705C0008B3
:104EFC00765C00087A5C0008000000006D4C00082D
:104F0C002DE9F04791461F468A680B690646934285
:104F1C00B8BF1346C9F8003091F843200C46DDF8B1
:104F2C00208012B10133C9F800302368990642BFC2
:104F3C00D9F800300233C9F80030256815F00605A1
:104F4C0007D104F1190AE368D9F800209B1A9D4295
:104F5C002ADB94F843302268003318BF01239206F1
:104F6C002FD404F1430239463046C047013022D0D9
:104F7C002368E56803F00603042B18BF0025D9F855
:104F8C0000204FF0000908BFAD1AA368226908BFC2
:104F9C0025EAE5759342C4BF9B1AED181A344D45AA
:104FAC001BD10020BDE8F08701235246394630461C
:104FBC00C047013003D14FF0FF30BDE8F087013519
:104FCC00C1E73020E11881F843005A1C94F84510D1
:104FDC002244023382F84310C3E7012322463946A8
:104FEC003046C0470130E6D009F10109D7E700008F
:104FFC002DE9F04317460A7E85B06E2A9846064680
:10500C000C460C9B01F1430E00F0BC801AD8632AAD
:10501C002ED00AD8002A00F0C880582A00F08A80C6
:10502C0004F1420584F842202AE0642A01D0692A5E
:10503C00F6D121681A6811F0800F23D0111D196068
:10504C00136827E0732A00F0B48008D86F2A2AD09E
:10505C00702AE5D10A6842F020020A6003E0752A42
:10506C0021D0782ADCD178226F4984F8452064E07D
:10507C001A6801F14205111D1960136884F8423059
:10508C000123A3E011F0400F02F104011960D7D005
:10509C00B2F90030002B03DA2D225B4284F8432056
:1050AC0062490A2217E02068196810F0800F03D0BB
:1050BC00081D18600B6806E010F0400F01F10400A9
:1050CC001860F7D00B886F2A14BF0A2208225749A0
:1050DC00002084F843006568002DA560C0F29C8018
:1050EC00206820F004002060002B3FD1002D40F000
:1050FC0095807546082A0BD12368DA0708D52369F1
:10510C0062689A42DEBF302305F8013C05F1FF3599
:10511C00AEEB05032361CDF800803B4603AA214684
:10512C003046FFF7EDFE013055D14FF0FF3005B0A2
:10513C00BDE8F08381F845203C492268186812F0DC
:10514C00800F00F104051D6001D0036802E05506D4
:10515C00FBD50388D00744BF42F0200222601BB964
:10516C00226822F0200222601022B1E77546B3FBC0
:10517C00F2F002FB1033CB5C05F8013D034600282E
:10518C00F5D1B7E708681A6810F0800F496904D0A8
:10519C00101D18601368196007E010F0400F02F141
:1051AC00040018601368F6D019800023754623613B
:1051BC00B1E71A68111D196015680021626828464C
:1051CC0000F036F808B1401B60606368236100236F
:1051DC0084F843309FE723692A4639463046C04756
:1051EC000130A2D023689B0707D5002504F11909CB
:1051FC00E368039A9B1A9D4205DBE068039B984287
:10520C00B8BF184693E701234A4639463046C04793
:10521C0001308AD00135EBE7002BA7D10B7804F1D4
:10522C00420584F8423065E7925C0008815C000816
:10523C0010B5C9B202449042034601D1002010BD02
:10524C001C7801308C42F6D1184610BD10B5431EA7
:10525C000A44914200D110BD11F8014B03F8014FE3
:10526C00F7E7884210B501EB020303D8421E9942BE
:10527C000CD110BD9842F9D28118D21AD34200D168
:10528C0010BD13F8014D01F8014DF7E711F8014B72
:10529C0002F8014FEBE7000038B50546002943D072
:1052AC0051F8043C0C1F002BB8BFE41800F0D4F8E4
:1052BC001E4A1368104633B9636014602846BDE873
:1052CC00384000F0CAB8A3420BD921686218934247
:1052DC0001BF1A685B685218226063600460EDE7D6
:1052EC0013465A680AB1A242FAD919685818A04252
:1052FC000BD120680144581882421960DED1106825
:10530C005268014419605A60D8E702D90C232B600B
:10531C00D4E7206821188A4201BF11685268091825
:10532C00216062605C60C9E738BD00BFBC0500202D
:10533C0070B5CD1C25F0030508350C2D38BF0C2598
:10534C00002D064601DBA94203D90C233360002053
:10535C0070BD00F081F8234A1468214691B9224CA3
:10536C0023681BB9304600F067F8206029463046A8
:10537C0000F062F8431C26D10C233046336000F059
:10538C006CF8E4E70B685B1B1AD40B2B0FD90B6082
:10539C00CC18CD50304600F060F804F10B00231D02
:1053AC0020F00700C31A1BD05A42E25070BD8C4249
:1053BC000BBF63684B681360636018BF0C46E9E76A
:1053CC000C464968CAE7C41C24F00304A04205D06B
:1053DC00211A304600F030F80130CDD02560D9E7E5
:1053EC0070BD00BFBC050020C0050020F8B5074605
:1053FC0014460E4621B91146BDE8F840FFF798BF98
:10540C0022B9FFF749FF25462846F8BD00F026F8DB
:10541C0084420FD921463846FFF78AFF05460028FB
:10542C00F2D031462246FFF711FF31463846FFF7DE
:10543C0033FFE9E73546E7E738B50023054C054669
:10544C000846236000F014F8431C02D1236803B112
:10545C002B6038BD182000207047704751F8040CA1
:10546C000028A0F10400BCBF0B58C0187047000006
:10547C00044B0246196809B90349196018680244BB
:10548C001A607047C40500201C200020F8B500BF2E
:10549C00F8BC08BC9E467047F8B500BFF8BC08BC09
:0454AC009E46704761
:1054B00002030405060708090A0B0C0D0E0F101055
:1054C0000A73657420737464627920647572617400
:1054D000696F6E203530306D730000000A7365749B
:1054E0002068756D6964697479206F76657273617F
:1054F0006D706C696E67202A310000000A73657454
:105500002074656D7065726174757265206F766563
:105510007273616D706C696E67202A310A6E6F72EA
:105520006D616C206D6F6465206C61756E636800E1
:105530000A424D45323830746D7072203D20256C22
:10554000640000000A424D4532383068756D203DD8
:1055500020256C6400000000000000000000000036
:10556000000000000000000000000000000000003B
:10557000000000000000000000000000000000002B
:10558000000000000000000000000000000000001B
:10559000000000000000000000000000000000000B
:1055A00000000000000000000000000000000000FB
:1055B00000000000000000000000000000000000EB
:1055C00000000000000000000000000000000000DB
:1055D00000000000000000000000000000000000CB
:1055E00000000000000000000000000000000000BB
:1055F0000000000000000000000000000000005F4C
:1056000000000007000700147F147F14242A7F2A5B
:10561000124C2C10686436495522500005030000D6
:10562000001C2241000041221C0014083E081408FE
:10563000083E0808000050300010101010100060E4
:1056400060000020100804023E5149453E00427FA0
:10565000400042615149462141454B311814127FA7
:105660001027454545393C4A494930017109050330
:105670003649494936064949291E00363600000098
:10568000563600000814224100141414141400416A
:1056900022140802015109063C425A560C7E11118F
:1056A000117E7F494949363E414141227F41412295
:1056B0001C7F494949417F090909013E4149497A0D
:1056C0007F0808087F00417F41002040413F017F63
:1056D000081422417F404040407F020C027F7F043B
:1056E00008107F3E4141413E7F090909063E415174
:1056F000215E7F09192946464949493101017F0147
:10570000013F4040403F1F2040201F3F4038403F66
:105710006314081463070870080761514945430082
:105720007F41410002040810200041417F00040233
:105730000102044040404040000102040020545453
:1057400054787F48444438384444442038444448DA
:105750007F3854545418087E0901020C5252523EAC
:105760007F0804047800447D40002040443D007FD1
:105770001028440000417F40007C041804787C0815
:1057800004047838444444387C141414080814146D
:10579000187C7C080404084854545420043F4440B6
:1057A000203C4040207C1C2040201C3C4030403CA1
:1057B00044281028440C5050503C4464544C44003D
:1057C00000000000000000000000000000000000D9
:1057D00000000000000000000000000000000000C9
:1057E00000000000000000000000000000000000B9
:1057F00000000000000000000000000000000000A9
:105800000000000000000000000000000000000098
:105810000000000000000000000000000000000088
:105820000000000000000000000000000000000078
:105830000000000000000000000000000000000068
:105840000000000000000000000000000000000058
:105850000000000000000000000000000000000048
:105860000000000000000000000000000000000038
:105870000000000000000000000000000000000028
:105880000000000000000000000000000000000018
:105890000000000000000000000000000000000008
:1058A00000000000000000000000000000000000F8
:1058B00000000000000000000000000000000000E8
:1058C00000000000000000000000000000000000D8
:1058D00000000000000000000000000000000000C8
:1058E00000000000000000000000000000000000B8
:1058F00000000000000000000000000000000000A8
:105900000000000000000000000000000000000097
:1059100000000000000000007C1211127C7F494949
:1059200049317F494949367F01010101603F213FEB
:10593000607F4949494177087F08772241494936C4
:105940007F1008047F7E1009047E7F0814224140E6
:105950003E01017F7F020C027F7F0808087F3E41E5
:1059600041413E7F0101017F7F090909063E414116
:10597000412201017F0101074848483F0E117F1174
:105980000E63140814633F20203F60070808087F57
:105990007F407E407F3F203F207F017F4848307F0F
:1059A0004830007F007F484830224149493E7F0807
:1059B0003E413E462919097F20545454783C4A4AB6
:1059C0004A317C545428007C04040C00603C243C84
:1059D0006038545454186C107C106C004454542893
:1059E0007C2010087C7C2112097C7C10284400401B
:1059F0003804047C7C0810087C7C1010107C38442F
:105A00004444387C0404047C7C1414140838444452
:105A1000440004047C04040C5050503C08147C14D2
:105A20000844281028443C20203C600C1010107CB6
:105A30007C407C407C3C203C207C047C5050207C82
:105A40005020007C007C50502028445454387C1056
:105A5000384438485434147C0A636F6D6D616E6449
:105A600020307844330000000A636F6D6D616E640E
:105A700020307830300000000A636F6D6D616E6415
:105A800020307834300000000A636F6D6D616E6401
:105A900020307841300000000A636F6D6D616E64E4
:105AA00020307841310000000A636F6D6D616E64D3
:105AB00020307843300000000A636F6D6D616E64C2
:105AC00020307843380000000A636F6D6D616E64AA
